:100000000C9457040C947F040C947F040C947F048C
:100010000C947F040C947F040C947F040C947F0454
:100020000C947F040C947F040C947F040C948C1823
:100030000C947F040C947F040C947F040C947F0434
:100040000C941F240C947F040C947F040C947F0464
:100050000C947F040C947F040C947F040C947F0414
:100060000C94B61A0C947F04545020002020000EEB
:1000700020004D487A004D7920526164696F004D2F
:100080007920526164696F006B015E015101440186
:1000900037012A011D0110010301F600E900DC000F
:1000A000CF00C200B500A8004F7468657220202000
:1000B00020202020005365722E20636C6173732E04
:1000C00020004C6967687420636C6173732E00456F
:1000D000617379202020202020202000526F636B44
:1000E000202020202020202000506F702020202061
:1000F0002020202020005661726965642020202085
:10010000202000536369656E636520202020200055
:1001100043756C7475726520202020200044726144
:100120006D612020202020202000456475636174CB
:10013000696F6E2020200053706F72742020202081
:1001400020202000496E666F726D6174696F6E20A9
:100150000043757272656E742020202020004E6569
:100160007773202020202020202000202020202005
:1001700020202020202020000804C0C0C0C0080487
:1001800080C0C0C0080400C0C0C008040080C0C057
:1001900008040000C0C00804000080C0080400007B
:1001A00000C00804000000800804000000000804EB
:1001B000020E3EFE0804000C3CFC0804000838F85F
:1001C0000804000030F00804000020E008040000EB
:1001D00000C00804000000800804000000000804BB
:1001E00078B4B47803053F213F1208120A100A0EB2
:1001F0001C0E0C1E0C141A14161F161E131E1E1B8A
:100200001E1E1F1E3F213F3A2F3A173D173F213F29
:10021000181F02040A041F0E04040E1F0A1F0A0EF0
:100220000E1F04110E2E252E2F2A2E262929021FDD
:1002300002081F08150E04040E150E15151B151BBC
:10024000040604040C040000000017000300031F50
:100250000A1F16371A1904130A153A000300000E74
:1002600011110E000A040A040E04003000040404F4
:100270000010001804031F111F121F101D15171165
:10028000151F07041F17151D1F151D01011F1F1521
:100290001F17151F000A00003200040A110A0A0A7B
:1002A000110A040115020E11171E051E1F150A0E54
:1002B000110A1F110E1F15111F05010E111D1F041C
:1002C0001F111F1108100F1F041B1F10101F061FE6
:1002D0001E040F0E110E1F09060E112E1F051A12F5
:1002E0001509011F011F101F0F180F1F0C1F1B04E2
:1002F0001B031C03191513001F11030418111F0001
:100300000201022020200001020C121E1F120C0C00
:1003100012120C121F0C1A14041E05242A1E1F028E
:100320001C141D1020201D1F0814111F101E041E58
:100330001E021C0C120C3E0A040C123E1E04021477
:10034000160A020F120E101E0E100E1E081E120CA0
:100350001226281E322A26041E21001F00211E04F8
:100360000102013F213F05077F4141417F3E5B4F35
:100370005B3E3E6B4F6B3E183C783C18183C7E3C15
:10038000181C577D571C1C5E7F5E1C007E43437EFD
:10039000007E73737E007E7F7F7E7F4141417F3090
:1003A000483A060E06297929067F4141417F60704F
:1003B0003F02042A1C361C2A7F3E1C080000081C31
:1003C0003E7F14227F22143C3C3C7EFF18423C813D
:1003D0007E3E6375633E3E616B633E3E636B6B3E88
:1003E00004027F020410207F201008082A1C08083D
:1003F0001C2A0808143E554122637569756310185C
:100400001C1810040C1C0C04000000000000005F0D
:1004100000000007000700147F147F14042A7F2ABD
:100420001023130864623649562050000807030061
:10043000001C2241000041221C002A1C3E1C2A08EC
:10044000083E080800E0600000080808080800608E
:1004500060000060100804033E5149453E00427FA1
:10046000400062514949462141494D331814127FD9
:100470001027454545393C4A494930412111090772
:100480003649494936064949291E00002400000022
:100490008064000008142241001414141414004154
:1004A00022140802015909063E415D594E7C121181
:1004B000127C7F494949363E414141227F414122D8
:1004C0001C7F494949417F090909013E4141513297
:1004D0007F0808087F00417F41002041413F017FA4
:1004E000081422417F404040407F020C027F7F027F
:1004F00004087F3E4141413E7F090909063E4161B2
:1005000041BE7F09192946264949493201017F0127
:10051000013F4040403F1F2040201F3F4038403FA8
:1005200063140814630304780403615149454300CC
:100530007F41410003040810600041417F00040234
:10054000010204808080808000030708002054544A
:1005500078407F2844443838444444283844442868
:100560007F3854545418087E09090218A4A49C78B2
:100570007F0804047800447D4000006080847D7F13
:100580001010284400417F40007C047804787C08E7
:100590000404783844444438FC18242418182424CB
:1005A00018FC7C080404080854545420043F4444B4
:1005B000203C4040207C1C2040201C3C4020403CF3
:1005C00044281028444C9090907C4464544C44003F
:1005D0000836410000007F00000041360800180482
:1005E00008100C7F4141417F0A4E6F205344206325
:1005F000617264206F720A6E6F204C4F4144455205
:100600002E4845580A0A153A45786974001D204657
:100610006C617368696E670A20206C6F6164657233
:100620002E2E2E0A0A444F4E2754205455524E2047
:100630004F464621000A0A153A49676E6F726500F7
:100640006D560A0A504C45415345205455524E2090
:100650004F464620004C4F57204241545445525972
:1006600021200017534400161378001613140015A8
:1006700010200015201000540A03E181867F3E18E7
:100680006D830F0F0E0183866033186DC3198F18A9
:1006900003C38E6033186DE330CF1803C39E6036FA
:1006A00030CDE360CF3006C79E7E3E30CDB360CF05
:1006B000300CC6F6603330D9B660CF33CFCCF6609D
:1006C00061B0DB1E60CF30D86CE6C061B0DB1E616C
:1006D0008F19986CC6C063B19B0E330F0FB078C6EC
:1006E000FF7E1F1B061E0F050089300802380249D5
:1006F0007868140000F6E8DBCFC3B8AEA49B928AFA
:10070000827B746E68625C57524E4945413E3A376F
:1007100034312E2C29272523211F1D1C1A191716A9
:100720001514131211100F0E0D0C0B0A09080706F1
:10073000450068010000050068013801000005005F
:100740003801680100004E074A070101FF0301015B
:10075000F703000000080002010000030407000086
:100760000000000000000102040810204080010287
:1007700004081020010204081020040404040404E6
:100780000404020202020202030303030303000043
:10079000000023002600290000000000250028009A
:1007A0002B0000000000240027002A0000407A10DF
:1007B000F35A00A0724E18090010A5D4E80000E812
:1007C0007648170000E40B54020000CA9A3B000070
:1007D00000E1F505000080969800000040420F00FF
:1007E0000000A08601000000102700000000E803C0
:1007F000000000006400000000000A00000000008B
:100800000100000000002C76D888DC674F0823DF49
:10081000C1DFAE59E1B1B796E5E3E453C63AE6511C
:10082000997696E8E6C28426EB898C9B62ED407C43
:100830006FFCEFBC9C9F40F2BAA56FA5F490055ADF
:100840002AF75C936B6CF9676DC11BFCE0E40D4704
:10085000FEF520E6B500D0ED902E03009435770527
:100860000080841E080000204E0A000000C80C33DF
:100870003333330F986E12831141EF8D2114893B6E
:10088000E65516CFFEE6DB18D1844B381BF77C1DEE
:10089000901DA4BBE424203284725E228100C9F141
:1008A00024ECA1E53D27F804D4191B240E051124DE
:1008B0001FBECFEFD8E0DEBFCDBF12E0A0E0B1E0B9
:1008C000E4E9F4E602C005900D92A833B107D9F728
:1008D00027E0A8E3B2E001C01D92AC34B207E1F713
:1008E00018E0CCEAD8E004C02297FE010E94202D37
:1008F000C63AD107C9F70E9439260C943D320C94B0
:1009000000008FEF8EBD0DB407FEFDCF8EB50895AC
:100910008EBD0DB407FEFDCF0895DC01ED91FC9175
:100920000190F081E02D0994CF93DF93EC016D2FBE
:1009300070E084E396E00E948D04BE01772784E393
:1009400096E0DF91CF910C948D04CF93DF9360E11B
:1009500070E084E396E00E94BC19CCE3D2E0899178
:1009600099910E94940482E0C634D807C1F784E3C9
:1009700096E0DF91CF910C94D119EAE0F1E0A8E381
:10098000B2E0819191918D939D9381E0E831F807D8
:10099000C1F780913C0290913D02826090933D02AC
:1009A00080933C020E94A50480913C0290913D02FC
:1009B0008D7F90933D0280933C020895CF93DF9307
:1009C000CEE3D2E088819981806199838883ECE3CA
:1009D000F2E0808191818160918380830E94A504EF
:1009E000888199818F7E99838883DF91CF91089543
:1009F0001092EA031092E9038AEF91E09093E803E2
:100A00008093E70364EB71E08DEC92E00E944A2949
:100A10006CEB71E086EC92E00C944A2986EC92E053
:100A20000E94DC288DEC92E00C94DC28CF93C82F38
:100A300061E170E084E396E00E94BC196C2F84E3CE
:100A400096E00E945719EC2FF0E0EE0FFF1FE85CD4
:100A5000FD4F808191810E94940484E396E0CF91C0
:100A60000C94D119ECE3F2E08081918120E492278B
:100A70009183808382E00C941605803124F08FE00E
:100A800080931E01089587FF03C010921E010895F0
:100A900080931E01992787FD909520914202309105
:100AA0004302207F822B932B909343028093420238
:100AB00085E00C941605BF92CF92DF92EF92FF92E1
:100AC0000F931F93CF93DF93082F61E170E084E3CE
:100AD00096E00E94BC19E0913406F0913506019031
:100AE000F081E02D6CE084E396E0099560E084E31A
:100AF00096E00E94BE1910E0A801440F551F21E0A6
:100B000030E061E170E084E396E00E94B0192AE7EA
:100B1000C22E22E0D22EC0E0D0E084E396E0C017DF
:100B2000D1078CF40E940719B82E84E396E00E9446
:100B30000719FB2CE12C8E0D9F1DF60181939193DB
:100B40006F012196EACFDF91CF911F910F91FF9016
:100B5000EF90DF90CF90BF900C94D119EF92FF925D
:100B60000F931F93CF93DF93CDB7DEB768970FB680
:100B7000F894DEBF0FBECDBF84E00E945B0580917C
:100B80007A0290917B02209178023091790282174B
:100B9000930729F090937902809378029DC1809108
:100BA0007C0290917D0292FB222720F92093C302C0
:100BB0009C01B5E036952795BA95E1F72F71209302
:100BC000CC029C012227307F2115304261F584FD43
:100BD00002C021E401C022E430913F01231781F0DB
:100BE000E3EDF2E0A0E4B1E030E24C9141933D93BB
:100BF00043E0E331F407C9F71092120320933F0159
:100C0000E82FEF70EE0FEE0FF0E020917E023091B2
:100C10007F02E05CFE4F308321832091800230917F
:100C20008102328323838827987F8115904409F0BD
:100C300089C0E0908002F090810200917E021091C4
:100C40007F0201701127E4E0000F111FEA95E1F720
:100C5000C701892F992782958F70080F191FC70127
:100C60008F73992795958795080F191F08311105DE
:100C70000CF048C0F0ECEF22FFE0FF2276E0F694A3
:100C8000E7947A95E1F74AE0B701CE0107960E9412
:100C900098292AE0E216F1042CF462ECE62E61E0D9
:100CA000F62E04C059E2E52E52E0F52E4AE0B801D6
:100CB000CE0143960E9498290A3011051CF464EC79
:100CC00071E002C069E272E0CE010D960E944A29ED
:100CD000BE016D5E7F4FCE010D960E94202A66EC0C
:100CE00071E00E94332AB7010E94332ABE01695F76
:100CF0007F4F0E94202ABC01CE0101960E947729D5
:100D000011E007C068EC71E0CE0101960E944A290B
:100D100010E0BE016F5F7F4F86EC92E00E94602979
:100D2000CE0101960E94DC28112361F0CE010D96C0
:100D30000E94DC28CE0143960E94DC28CE01079653
:100D40000E94DC2800917C0210917D02C801882756
:100D5000907F892B19F50370000F10E0B8018DEC1E
:100D600092E00E944D2A20918102FC012083B8016B
:100D70006F5F7F4F8DEC92E00E944D2A20918002A0
:100D8000FC01208380917C0284FB992790F9909349
:100D9000C40283FB882780F98093C20220917C02E1
:100DA00030917D02C9018827987F8115904809F00C
:100DB00093C024FD91C080919803882309F48CC0CE
:100DC00080917E0290917F0223FD02C097FF84C034
:100DD00097709093570380935603009709F47CC053
:100DE00020915403309155032817390709F474C032
:100DF000E4E1F3E080E2819323E0E435F207D9F700
:100E000010925303609180027091810280E090E023
:100E10006150784F8F4F9F4F45E0660F771F881FB7
:100E2000991F4A95D1F70E947522AE014F5F5F4F1F
:100E300060E270E088E593E00E947521A8E5B3E0E8
:100E4000E4E1F3E080E09D91992321F091938F5F9D
:100E50008F33C9F711E0180FE82FF0E0EC5EFC4F7C
:100E60008AE3808360915603709157036150784FF5
:100E700035E0660F771F3A95E1F780E090E00E9439
:100E80007522AE014F5F5F4F60E270E088E593E04E
:100E90000E94752160E0412F50E0862F90E09A017A
:100EA000280F391F2F33310564F4FC01E85AFC4F39
:100EB0008081882331F0F901EC5EFC4F80836F5F05
:100EC000ECCF8091560390915703909355038093F4
:100ED000540384E68093130368960FB6F894DEBF3C
:100EE0000FBECDBFDF91CF911F910F91FF90EF907B
:100EF0000895EF92FF920F931F93CF93DF9340E1FA
:100F000050E060E170E084E396E00E94AD19CCE42B
:100F1000D2E084E396E00E940719F82E84E396E07D
:100F20000E9407191F2D00E0800F911F899399934C
:100F300082E0CC35D80769F784E396E00E94D119A6
:100F4000C0914C02D0914D0280914F0286958695BA
:100F50008093BA02E090BF02E4E0EE9E700111249B
:100F60008701015D1E4FBE017370882777FD809554
:100F7000982F0E94642BF701EA51FE4F20813181A6
:100F8000428153810E94182C9B01AC01F8016081C1
:100F90007181828193810E94612A6093BB02709368
:100FA000BC028093BD029093BE02D2FD03C010929A
:100FB000C50203C081E08093C502CC27D079C1155A
:100FC000D04921F481E08093C10202C01092C10295
:100FD000DF91CF911F910F91FF90EF900895AF9205
:100FE000BF92CF92DF92EF92FF920F931F93CF9316
:100FF000DF93CDB7DEB72C970FB6F894DEBF0FBEE8
:10100000CDBF6B017C0180E280933F01E0E4F1E021
:10101000819391E0E038F907D9F76EEC71E08DEC3F
:1010200092E00E9480291092CC02C092BB02D09222
:10103000BC02E092BD02F092BE0221E0B701A6011F
:10104000CE0107960E94C42920E030E048EC52E42B
:101050006091BB027091BC028091BD029091BE0272
:101060000E94C52A87FF03C064EC71E002C069E2F8
:1010700072E0CE0101960E944A29BE01695F7F4F4E
:10108000CE0101960E94202A63ED71E00E94332A6E
:10109000BC018DEC92E00E946029CE0101960E9475
:1010A000DC28CE0107960E94DC28A090BF02B12C5C
:1010B0008501000F111F000F111FF801E15DFE4FA8
:1010C0002081318142815381C701B6010E94602A8B
:1010D000F801EA51FE4F20813181428153810E9403
:1010E000C92A0E94312B737096E0660F771F9A957C
:1010F000E1F7605F7F4F600F711FF501EE51FE4F0A
:101100008081680F711D87FD7A9570933F0260930F
:101110003E0260E170E084E396E00E94BC19809199
:101120003C0290913D020E94940480913E02909175
:101130003F020E94940484E396E00E94D11968EC77
:1011400070E080E090E00E9498240E9479072C963D
:101150000FB6F894DEBF0FBECDBFDF91CF911F91C8
:101160000F91FF90EF90DF90CF90BF90AF900895D8
:1011700084E396E00E94961989E993E00E94AD15F8
:1011800028E834E041E854E06AE070E086E097E067
:101190000E94EF236FE770E089E993E00E94301529
:1011A00087ED91E00E942621892B21F481E0809334
:1011B000980304C08EEB93E00E94C61868EC70E0C0
:1011C00080E090E00E9498240E94BD0464E670E0F4
:1011D00080E090E00E9498240E94DE0468E572E0BE
:1011E00080E090E00E94982480E090E0A7EBB2E4D9
:1011F0008093BB029093BC02A093BD02B093BE0249
:10120000BC01CD010E94EF0781E08093B103809380
:10121000EE030895CF93DF9389E993E00E94F312E0
:10122000882309F4C1C144E062E083EA93E00E94AC
:10123000080C882319F081E08093C00244E060E04C
:1012400083EA93E00E94080C882319F082E08093DF
:10125000C00244E061E083EA93E00E94080C882326
:1012600039F080911E018F5F80931E010E943D0521
:1012700044E063E083EA93E00E94080C882339F09D
:1012800080911E01815080931E010E943D0544E023
:1012900066E083EA93E00E94080C882301F166E788
:1012A00070E089E993E00E9430150E94BD0468EC6B
:1012B00070E080E090E00E9498240E94DE0468E5DF
:1012C00072E080E090E00E9498246091BB027091EF
:1012D000BC028091BD029091BE020E94EF0744E0E3
:1012E00064E083EA93E00E94080C81111092C0022E
:1012F00044E065E083EA93E00E94080C81110E94BB
:1013000032058091C002882309F47FC0813099F5AD
:10131000C091BF0284E0C89FE0011124FE01EA51A0
:10132000FE4F2AE037ED43EA5BE360817181828101
:1013300093810E94612A2091BB023091BC024091AE
:10134000BD025091BE020E94612A6093BB0270935D
:10135000BC028093BD029093BE02FE01E15EFE4F8F
:1013600020813181428153810E94142C1816ECF5A2
:10137000C15DDE4F2EC08230C1F5C091BF0284E056
:10138000C89FE0011124FE01EA51FE4F2081318106
:10139000428153816091BB027091BC028091BD0279
:1013A0009091BE020E94602A6093BB027093BC02BF
:1013B0008093BD029093BE02FE01E15DFE4F20814D
:1013C0003181428153810E94C52A87FF0EC0C15ED0
:1013D000DE4F88819981AA81BB818093BB02909363
:1013E000BC02A093BD02B093BE026091BB0270919B
:1013F000BC028091BD029091BE020E94EF0764E69C
:1014000070E080E090E00E94982487E08093F003F1
:101410001092F1034091BB025091BC026091BD0259
:101420007091BE0222E030E087EE93E00E949328A4
:1014300062E770E087EE93E00E9486268091C50205
:10144000882341F02EED31E040E060E087EE93E04C
:101450000E94EA0EE0911E01EE0FFF0BEE56FE4FCA
:101460002081318140E06DE287EE93E00E94EA0E38
:101470008CE38093F0031092F10366EC72E087EE48
:1014800093E00E94AB261092F0038FE08093F1036B
:1014900066E673E087EE93E00E941C106DEC72E04C
:1014A00087EE93E00E94AB2664EE71E087EE93E056
:1014B0000E941C101092F00389E18093F103809147
:1014C0001303882351F081508093130364E173E088
:1014D00087EE93E00E94B92606C063ED72E087EEC6
:1014E00093E00E94D8261092F00386E08093F103E7
:1014F0008091C202882319F06FE670E002C06CE6AA
:1015000070E087EE93E00E9486268091C4028823D3
:1015100031F068E670E087EE93E00E948626E09165
:10152000CC02E03184F4EE0FFF0BE857FF4F6591DA
:10153000749180E294E00E94522F60E274E087EEA2
:1015400093E00E94B926E091BA02EB3128F4209191
:101550008001309181010EC0E43228F02091900189
:101560003091910107C0F0E0EE0FFF1FE65BFE4FE8
:101570002081318140E066E387EE93E00E94EA0E2D
:101580000E9479078091C002882331F08091BA02CD
:101590008A3110F01092C0028091C102882321F09C
:1015A000DF91CF910C94AE05DF91CF910895CF9349
:1015B000CFB7F89480912D04811127C0E4E8F7E0BB
:1015C0008491E0E7F7E09491E82FF0E0EE0FFF1F41
:1015D000EE55F84FA591B4918C91892321F461E0E7
:1015E0008AE00E94D92561E08AE00E94A0258CB59E
:1015F00080618CBD8CB580648CBD61E08DE00E9403
:10160000A02561E08BE00E94A02580912D048F5FD2
:1016100080932D04CFBFCF91089521E0FC0120835A
:10162000089570E085E00C941825AF92BF92CF9298
:10163000DF92EF92FF920F931F93CF93DF93EC0112
:1016400089819A812FE0289F8001299F100D112404
:1016500085E10E94FB24800F911F24E096958795D9
:101660002A95E1F79A8389832881222391F1AC811D
:10167000AD80B12CC12CD12CE885F9857F0100E02B
:1016800010E06E817F819B0140E050E08617970754
:1016900028F0BC01E817F90708F4BF0180E090E0EA
:1016A0001F921F921F92AF930E9495286B830F90F9
:1016B0000F900F900F9070E085E0DF91CF911F9118
:1016C0000F91FF90EF90DF90CF90BF90AF900C9470
:1016D0001825DF91CF911F910F91FF90EF90DF9030
:1016E000CF90BF90AF900895FC018CE39FE093836F
:1016F000828384E0818381E084870895CF93DF93A0
:10170000EC018C819D81892B81F18C858F7151F544
:1017100084E10E94FB24BC01882777FD8095982FE7
:101720000E94642B26EE3FE34EEC50E40E94182CFE
:101730000E94362B9B017B836A836115710581F0C2
:1017400084E08983FE0140E0848195812817390770
:1017500010F449830AC04F5F32964430A9F702C0A3
:101760008FEF89838C858F5F8C87DF91CF91089570
:10177000FC0188E0808389E0818387E0828386E0C2
:10178000838384E0848382E0858381E18683089576
:10179000DF92EF92FF920F931F93CF93DF937C0121
:1017A000EC0100E010E0DD24DA9462E088810E9420
:1017B000A02588810E940F26F701E00FF11F892BD9
:1017C00021F487818F5F878308C08781882349F050
:1017D0008F3F11F4178201C0D78260E088810E9498
:1017E000A0250F5F1F4F219607301105F1F6DF91FD
:1017F000CF911F910F91FF90EF90DF900895FC0122
:10180000E60FF11D81E09781913009F080E00895A5
:10181000262F30E0FC01E20FF31F8781423028F4CD
:1018200081508E3F48F080E008958F3FE1F3642FB0
:101830000E948F2C9130B9F781E008958EBD000091
:101840000DB407FEFDCF8EB50895DC01643508F0B8
:1018500053C0403308F050C090968C919097342F2D
:10186000359535953595E62FFF27E7FDF095242F23
:101870002770823099F4DF01A25DBB4F84E5380206
:10188000A00DB11D11248C9190E0022E02C09595FF
:1018900087950A94E2F78095817009C0833039F406
:1018A00046271C968C91482740FF03C014C0811125
:1018B00012C084E53802E00DF11D1124E25DFB4FFA
:1018C00081E090E0022E01C0880F0A94EAF780952B
:1018D0009081982310C084E53802E00DF11D112499
:1018E000E25DFB4F81E090E0022E01C0880F0A9478
:1018F000EAF79081982B908308951F93CF93DF93FD
:10190000EC01162FF89460E08F850E94D925888914
:1019100018161CF460E00E94D925812F0E941E0C2D
:10192000888918161CF461E00E94D9257894DF910B
:10193000CF911F91089528EF31E0EEE2F4E0DF014E
:10194000A9011D9241505040E1F7DC0119961C920B
:1019500019971A961C920895DF92EF92FF920F93B7
:101960001F93CF93DF93EC018C858F5F8C878EE282
:10197000E82E84E0F82ED12C6D2D6064CE010E94FB
:101980007D0C60E8CE010E947D0C61E08F850E9495
:10199000D925888918161CF460E00E94D92500E03A
:1019A00010E0F701E00FF11F80810E941E0C0F5F15
:1019B0001F4F04351105A9F7888918161CF461E03A
:1019C0000E94D925D39484E5E80EF11C86E0D81254
:1019D000D3CF60E4CE01DF91CF911F910F91FF90A3
:1019E000EF90DF900C947D0CFC0160A361A308953F
:1019F000FC0160A341A30895CF92DF92FF920F9361
:101A00001F93CF93DF931F92CDB7DEB76C01062FE4
:101A1000F42E10E0121754F4412F4F0D602FC60121
:101A200029830E94250C1F5F2981F4CF0F90DF913D
:101A3000CF911F910F91FF90DF90CF900895CF929B
:101A4000DF92FF920F931F93CF93DF931F92CDB737
:101A5000DEB76C01062FF42E10E0121754F4612F3C
:101A6000600F4F2DC60129830E94250C1F5F29811D
:101A7000F4CF0F90DF91CF911F910F91FF90DF90E6
:101A8000CF900895DF92EF92FF920F931F93CF9321
:101A9000DF93EC01E62ED22EF42E112707FD1095D0
:101AA000040F111D47FD1A958F2D992787FD9095DD
:101AB0008017910744F42D2D4F2D6E2DCE010E94DD
:101AC0001F0DF394F1CFDF91CF911F910F91FF90F4
:101AD000EF90DF9008958F929F92AF92BF92CF9236
:101AE000DF92EF92FF920F931F93CF93DF93EC015E
:101AF000E62ED42E122FCC24C394C21AB22EB19447
:101B0000BB0CF12C802F8470A82E802F8270982E11
:101B1000802F8870882E0170F1160CF04DC0C7FC24
:101B200004C01150B394B394CB0CF3948F2D880F51
:101B30008F5FC80EAA2071F0412F4D0D6F2D6E0DD5
:101B4000CE010E94250C4F2D4D0D612F6E0DCE0143
:101B50000E94250C992071F04D2D411B6F2D6E0DAB
:101B6000CE010E94250C4D2D4F19612F6E0DCE0117
:101B70000E94250C882071F04F2D4D0D6E2D611B9C
:101B8000CE010E94250C412F4D0D6E2D6F19CE01F7
:101B90000E94250C002309F4BFCF4D2D4F196E2D47
:101BA000611BCE010E94250C4D2D411B6E2D6F191E
:101BB000CE010E94250CB0CFDF91CF911F910F91E4
:101BC000FF90EF90DF90CF90BF90AF909F908F905D
:101BD00008958F929F92AF92BF92CF92DF92EF9231
:101BE000FF920F931F93CF93DF93EC01B62EA42E99
:101BF000122FDD24D394D21AC22EC194CC0CFF2410
:101C0000F394802F8170882E992493949E0C0270F7
:101C10008FEF8F0D8117C4F5D7FC04C01150C3940A
:101C2000C394DC0C8F2D880F8F5FD80E882099F01D
:101C3000212F220F290D4A2D411B6F2D6B0DCE0137
:101C40000E94FC0C23E02E0D4A2D4F19612F6B0DC5
:101C5000CE010E94FC0C002399F0212F220F290DA8
:101C60004A2D411B6B2D6F19CE010E94FC0C23E005
:101C70002E0D4A2D4F196B2D611BCE010E94FC0CBD
:101C8000F394E394E394C4CFDF91CF911F910F912C
:101C9000FF90EF90DF90CF90BF90AF909F908F908C
:101CA00008959F92AF92BF92CF92DF92EF92FF92F0
:101CB0000F931F93CF93DF93EC01B62EF42EA22E39
:101CC000DE2CD194DD0C9D2C920E1E2D160F292D8D
:101CD000612F0E941F0DCC24CA94C00ECF0C292D59
:101CE0004C2D612FCE010E941F0DD00EFE0C2D2D0C
:101CF0004F2D6B2DCE010E94FC0CBA0C6FEF6B0DBB
:101D00002D2D4F2DCE010E94FC0C01E02E2D4F2DCC
:101D1000612FCE010E946B0DDE2CD094DB0C02E013
:101D20002E2D4F2D6D2DCE010E946B0DCE1804E08F
:101D30002E2D4C2D6D2DCE010E946B0D08E02E2D09
:101D40004C2D612FCE010E946B0DDF91CF911F9121
:101D50000F91FF90EF90DF90CF90BF90AF909F904A
:101D60000895AF92BF92CF92DF92EF92FF920F93BE
:101D70001F93CF93DF93EC01A62EC42EB22EF02E2C
:101D80001E2DE194EE0CD12ED60E2E2D2B0D6D2D89
:101D90000E94420DFA94FE0CC10E6FEF6A0D6B0D9E
:101DA000611BEF2C01E0212F4C2DCE010E94E90D8B
:101DB00002E0212F4C2D6D2DCE010E94E90DDF9107
:101DC000CF911F910F91FF90EF90DF90CF90BF9038
:101DD000AF9008956F927F928F929F92AF92BF9231
:101DE000CF92DF92EF92FF920F931F93CF93DF93E7
:101DF000F901A49031965491FC01F0A064350CF0E7
:101E00000CC1BB24A7FCB094A62FBB27A7FDB0959F
:101E1000FD01EA0DFB1D1E161F060CF0FEC040332F
:101E20000CF0FBC0C52E042F112707FD1095E8010B
:101E3000C50FD11D57FDDA951C161D060CF0EDC01F
:101E4000E90122969501295F3F4F37FF02C0295FC4
:101E50003F4F73E0359527957A95E1F747FF0AC024
:101E6000C52EC40E209FA001219F500D1124C41B1C
:101E7000D50B40E00C2D112707FD1095040F111D07
:101E800047FD1A95013311051CF070E3C72EC41AE3
:101E900067FD60E0E535F10514F0E4E5F0E01E2FA4
:101EA000FC0174857427862F992787FD9095FC0186
:101EB000EA1BFB0BDF015F01F7E0AF22BB24E0E888
:101EC000F0E002C0F595E795AA94E2F70E2FB7FD72
:101ED000179653E0B595A7955A95E1F7AC0FBD1F3E
:101EE000E42FE77051E001C0550FEA95EAF74595F8
:101EF00045954595E4E54E02800D911D1124825DC6
:101F00009B4F40E0DD24C7FCD094BB24B39433271F
:101F1000E42FF0E0EC15FD050CF07FC0FD01E4902E
:101F2000F1E0FF1219C0EC01A02EFD01862E881AE7
:101F30009C2E980C911608F067C09E2C9A2019F0E0
:101F40009880952A9882A69429F43196E490689412
:101F5000AA24A7F82196ECCFF1101BC0752E70941F
:101F6000EC01A02EFD01862E881A9C2E980C91164D
:101F700008F04AC09E2C9A2019F0988097209882E9
:101F8000A69429F43196E4906894AA24A7F821969F
:101F9000ECCFE3E0FE1631F0EC01A02EFD01862E21
:101FA000881A2EC0752E7094962EEC01A02EFD017D
:101FB0009116B0F48E2C8A2049F08880692C67260F
:101FC00060FE02C0852A01C087208882A69429F479
:101FD0003196E4906894AA24A7F893942196E8CFC8
:101FE0007B2512C09E2C9A2019F098809526988205
:101FF000A69429F43196E4906894AA24A7F821962F
:102000009C2E980C911670F3550F19F48C5A9F4F13
:1020100051E04F5FA20FB31F7BCFDF91CF911F9194
:102020000F91FF90EF90DF90CF90BF90AF909F9077
:102030008F907F906F900895DC01FB0184918F5FFA
:1020400014968C9314973196E491EF5F1596EC9368
:1020500015976E5F7F4F5F967C936E935E970895A2
:10206000EF920F93CF93DF93EC014E876D872F870D
:10207000E98A088B81E0888788A319A28F8364EEA0
:1020800071E0CE010E941C100E94D70A8CB58F7D92
:102090008CBD8CB58C7F81608CBD8DB581608DBD14
:1020A0008CB58C608CBD61E08E850E94A02561E0BE
:1020B0008D850E94A02561E08F850E94A0258989D9
:1020C00018161CF461E00E94A025888918161CF4DB
:1020D00061E00E94A025898918166CF460E00E94D6
:1020E000D9256AE070E080E090E00E94982461E0E9
:1020F00089890E94D9258D85992787FD9095FC01B6
:10210000E658F84FE491F0E0EE0FFF1FE856F84F65
:10211000259134913D8B2C8BFC01EA59F84F849129
:102120008B8F8E85992787FD9095FC01E658F84F97
:10213000E491F0E0EE0FFF1FE856F84F259134913F
:102140003B8B2A8BFC01EA59F84F84918A8F88894E
:10215000992787FD9095FC01E658F84FE491F0E04F
:10216000EE0FFF1FE856F84F259134913F8B2E8BD1
:10217000FC01EA59F84F84918C8F8F85992787FD50
:102180009095FC01E658F84FE491F0E0EE0FFF1F48
:10219000E856F84F25913491398F288FFC01EA5980
:1021A000F84F84918D8F61E2CE010E947D0C64E135
:1021B000CE010E947D0C8B8587FF02C08FE78B8745
:1021C0006B856068CE010E947D0C60E2CE010E94AA
:1021D0007D0C6CE0CE010E947D0CCE01DF91CF9191
:1021E0000F91EF900C94AC0C6F927F928F929F9214
:1021F000AF92BF92CF92DF92EF92FF920F931F9315
:10220000CF93DF93EC01162FF42EB02EE8A06435A7
:102210000CF081C08FE284170CF47DC0EC81F0E0FB
:1022200031970E9FC0010F9F900D1124860F911DB5
:1022300067FD9A95181619060CF06DC08D81809F68
:10224000C0011124840F911D47FD9A951816190697
:102250000CF061C0A62E962EC22ED12C8A2D811B89
:10226000992787FD90952C8130E0821793070CF019
:1022700051C0215031098217930779F0C29ED001D5
:10228000C39EB00DD29EB00D1124A80FB91FEE8DC4
:10229000FF8DEA0FFB1F749001C0712C8F2C6F2CE7
:1022A000282D2F19332727FD30958D8190E0281791
:1022B00039076CF570FE11C081E0B81206C0482DD8
:1022C0006A2DCE010E94250C1EC00B2D2B2D462DF4
:1022D000692DCE010E94420D16C089A198A18917CF
:1022E00091F088A381E0B81206C0482D6A2DCE0176
:1022F0000E94250C07C00B2D2B2D462D692DCE01DC
:102300000E94420DE8A276946B0C8394C9CF9B0C7B
:10231000A394A4CFE8A2DF91CF911F910F91FF90DA
:10232000EF90DF90CF90BF90AF909F908F907F9075
:102330006F9008950F93CF93DF93EC01262F6A30AF
:1023400039F42D8198858A85299F800D112422C01A
:102350006D3011F108854A8569850E94F410488521
:102360005C812985549F200D112429878F81882322
:1023700099F0332727FD309584E590E0459F80193B
:1023800091091124821793073CF49D818A85499F06
:10239000800D11248A87198681E090E0DF91CF912A
:1023A0000F9108958F929F92AF92BF92CF92DF923A
:1023B000EF92FF920F931F93CF93DF93EC015C0199
:1023C00086E8A80EB11CD5018C91882309F44DC074
:1023D0008C3018F41CE0181B01C010E0FE01EA5A12
:1023E000FF4F81E080836E01BEE4CB0ED11C60E024
:1023F000C6010E94F40C4E01E3E58E0E911CD4013F
:102400008C9103E0080F9DE2F92E4F2D481B410FE0
:1024100023E0E22E24E560E0C6010E94B10E61E0F7
:10242000C6010E94F40CF401808103E0080F4F2DD7
:10243000481B410F24E560E0C6010E94510EFE01D9
:10244000E95AFF4F84E080833196D4018C91181BA8
:10245000115D1083CC57DF4F68817981C6010E94DE
:102460008626F501808181508083DF91CF911F9175
:102470000F91FF90EF90DF90CF90BF90AF909F9023
:102480008F900895DF92EF92FF920F931F93CF9357
:10249000DF93EC018C8D9D8D892B09F49CC08E01FE
:1024A000025B1F4F40E061E0C8010E94F80C85E527
:1024B000FE01EE5AFF4F9081891B3596808331963D
:1024C0001082698D613009F462C028F0888D653012
:1024D00008F074C06FC0CE0185960E94321781E06B
:1024E000FE01EA5AFF4F808364EE71E0C8010E944A
:1024F0001C101D8E1C8EFE01EC5AFF4F108238EA14
:10250000D32E7E018AE0E80EF11CCE010E94F31268
:102510008823D9F365E576E0C8010E9486266A8D96
:102520007B8D4AE050E0C8010E94A22760E476E07B
:10253000C8010E9486266D2D62956F7070E04AE09A
:1025400050E0C8010E948D2765E376E0C8010E9433
:10255000862664E0C7010E94FF0B81113CC0DA941B
:10256000A1F660E0CE010E94110B83B7817F8460E9
:1025700083BF83B7816083BF83B7816083BF889542
:1025800083B78E7F83BF83B78E7F83BFBECFCF5885
:10259000DF4F488159816A817B814F7055276627BB
:1025A0007727483051056105710510F467E009C0CF
:1025B00068E707C0882379F06B5F03C0882359F070
:1025C0006FE2C801DF91CF911F910F91FF90EF90C3
:1025D000DF900C94BB26DF91CF911F910F91FF905C
:1025E000EF90DF9008958F929F92AF92BF92EF92FB
:1025F000FF920F931F93CF93DF93EC017C0100E8D0
:10260000E00EF11CF70180809180A280B3800E94CF
:10261000692495018401061B170B280B390BB9019E
:10262000A8015E011FE7A10EB11CF501808190E0B9
:10263000A0E0B0E08E0105581F4F84179507A6074C
:10264000B70750F4F80180819181A281B381892B71
:102650008A2B8B2B09F040C0F80180819181A281E7
:10266000B381892B8A2B8B2BA9F57E01F5E2EF0E26
:10267000F11CC7010E942F17C7010E949C17C701B8
:102680000E946018CE010E94D211CE010E94421217
:102690007E012EE4E20EF11CC7010E94AC0CFE018B
:1026A000EC5AFF4F8081811103C0C7010E949B0C2F
:1026B0000E947524F8016083718382839383FE01F5
:1026C000EB58FF4FC958DF4F28813981621B730BCC
:1026D0007183608380E036C00E946924F501208107
:1026E000620F711D811D911DF701608371838283CB
:1026F0009383FE01EF58FF4F4081518162817381C6
:102700004F5F5F4F6F4F7F4F40835183628373836F
:10271000F80110821182128213820E947524FE0138
:10272000E958FF4F6083718382839383CE010E94B7
:10273000150BCE010A960E94C80BCE0148960E9446
:102740007E0B81E0DF91CF911F910F91FF90EF9071
:10275000BF90AF909F908F9008950F931F93CF934A
:10276000DF938C01EC01C25BDF4FCE010E949B0C1A
:102770006DE076E0CE010E948626CE010E94AC0C70
:102780008CB583608CBD8DB58E7F8DBD8EEF91E055
:10279000EEEFFFE30995F801EC5AFF4F108268EE67
:1027A00075E0CE010E94C626CE010E94AC0C065FE9
:1027B0001F4FC8010E94C80B64E0C8010E94FF0BB4
:1027C000811107C062E370E080E090E00E949824ED
:1027D000F0CFDF91CF911F910F9108952F923F92EB
:1027E0004F925F926F927F928F929F92AF92BF9221
:1027F000CF92DF92EF92FF920F931F93CF93DF93CD
:10280000CDB7DEB729970FB6F894DEBF0FBECDBFA8
:10281000998788871B012A013C0180E7680E711C9B
:10282000F3018081882309F402C181E0E885F985FC
:10283000EA5AFF4F8083E885F985EB5AFF4F1082F3
:10284000E885F985EC5AFF4F1082E885F985108EEE
:102850008F01025B1F4F61E0C8010E94F40C888564
:1028600099858D5A9F4F9C838B83C884D98497E523
:10287000C90ED11CE884F984E8E5EE0EF11C8885C8
:1028800099858E5A9F4F9A838983E885F985EF58F9
:10289000FF4FFE83ED8388849984FAE08F0E911CAC
:1028A000A884B98485E2A80EB11C888599850E9408
:1028B000F3128823D1F3F1018491882321F0EB8175
:1028C000FC81508101C050E027E736E040E060E045
:1028D000C8015F830E94EA0E5F814114510439F000
:1028E0004CE0450F920160E0C8010E94EA0EF6013B
:1028F00010828CE0F7018083B101C8010E94862616
:10290000E981FA819081892F880F890F81958D5AED
:10291000F6018083EB81FC819081892F880F890FDC
:102920008195835DF7018083ED81FE81808184FF45
:1029300003C063E776E002C06FE676E0C8010E945C
:10294000C626E981FA819081892F880F890F8195A8
:102950008D5AF6018083F70180818F5F8083E8853F
:10296000F98582A5882319F06BE676E002C067E658
:1029700076E0C8010E94C626E981FA819081892FFC
:10298000880F890F81958D5AF6018083F701808128
:102990008F5F808363E676E0C8010E94C62665E00B
:1029A000C4010E94FF0B882351F0E885F98562A5D8
:1029B0006F5FC5010E94F218C5010E94DC1864E037
:1029C000C4010E94FF0B811113C0F3012081822FEB
:1029D00090E0A0E0B0E0ED81FE8140815181628114
:1029E0007381481759076A077B07A8F02F3F99F0B2
:1029F0008FEFF3018083088519850B5D1F4F60E021
:102A0000C8010E94D916C8010E94B01881E0E8856B
:102A1000F985808F0CC066E0C4010E94FF0B8823FB
:102A200009F443CF888599850E94AD1334CF299648
:102A30000FB6F894DEBF0FBECDBFDF91CF911F91CF
:102A40000F91FF90EF90DF90CF90BF90AF909F904D
:102A50008F907F906F905F904F903F902F90089550
:102A600040E050E00C94EE13E0E8F7E72591349154
:102A700081E02130304C09F080E00895CF93DF935E
:102A8000EC010E9434159E01275A3F4FDE01A059E8
:102A9000BF4F882309F43CC0E6E9F7E78491F901C8
:102AA0008083E7E9F7E7E491EC83E8E9F7E7E4916D
:102AB000ED83E9E9F7E7859194919F838E83EBE9B4
:102AC000F7E78591949199878887EDE9F7E7E49195
:102AD000EBA7EEE9F7E7E491EAA7EFE9F7E7E4917E
:102AE000EC93E0EAF7E7859194919D8F8C8FE2EA71
:102AF000F7E7859194919F8F8E8FE4EAF7E78591B0
:102B0000949199A388A3E6EAF7E78591949120C070
:102B10008CE3F90180831C822FEF2D8380E293E008
:102B20009F838E8384ED93E09987888781E08BA7CC
:102B30008AA72C938CEA9DE09D8F8C8F8EED9DE073
:102B40009F8F8E8F84E79EE099A388A38CE39FE0FC
:102B50009BA38AA3DF91CF910895CF92DF92EF924A
:102B60000F93CF93DF93EC01FC01E158FF4F82E319
:102B70008083349741E050E060E070E0408351830F
:102B8000628373833B978FEF8083CE010E943E1553
:102B9000CE010E940D0B6FEFCE010E94110B6E0152
:102BA0008AE0C80ED11CC6010E94B80BC6010E9463
:102BB000C80BCE0148960E94740B3EE0E32E0FE056
:102BC00020E14BE06DE0CE01825B9F4F0E94301010
:102BD000A596CE010E94451665E0C6010E94FF0B36
:102BE000882351F060E0CE01DF91CF910F91EF90FB
:102BF000DF90CF900C94F21840E067EE76E0CE01C3
:102C0000DF91CF910F91EF90DF90CF900C94E4166D
:102C1000CF93DF9350E0FA01EE0FFF1FE80FF91F8B
:102C200037852089E32FF22FE60FF11DE60FF11D06
:102C300025913491FA01EE0FFF1FE80FF91F30A321
:102C4000278FF90165917491FC01D481D69FC02D25
:102C50001124E40FF51FC1A3F901A591B4916B2FC5
:102C600070E0EC2FF0E0DC01A40FB51F6E177F07BA
:102C700020F4F90125913491C32FCD9FC02D11244B
:102C80009296CC93DF91CF91089521E0FC012483AB
:102C900024E020A726E437E0308B278740E060E07F
:102CA0000E94081661E070E083E00E941825E1EBC5
:102CB000F0E08081887F81608083F89410928000AA
:102CC000E1E8F0E01082109285001092840088E123
:102CD00091E0909389008093880080818860808350
:102CE000808181608083EFE6F0E080818260808374
:102CF000789408950F93FC01862F642F011129C049
:102D00008230D1F048F4882391F0813011F540E011
:102D1000CF010F910C9408168330A9F08430C9F4C8
:102D20008481489F602D1124658F268F12C04B30FF
:102D300008F06AE0668B0DC08481489F602D1124E5
:102D4000618F228F06C08481489F602D1124638F7C
:102D5000248F0F910895FC0121110EC0648B848192
:102D6000489F402D1124458B15A214A213A281E087
:102D7000878B80933206108E0895809132068823C7
:102D800019F080912F0601C080E08093B40008956F
:102D9000FC0161110DC0178A158A14A213A2108EAE
:102DA00010922F0610923006109232060C94BD1627
:102DB0000895CF93DF93EC01611103C00E94C81600
:102DC0001982DF91CF9108950F931F93CF93DF93D3
:102DD000EC018B0141110EC060E00E94D9161E87E4
:102DE0000D871B8A1A8A81E0898389E08E8B198E70
:102DF0001B8E1D8EDF91CF911F910F910895CF9360
:102E0000DF93EC01611128C08881882329F1898131
:102E1000811122C089852F819885E22FF92FE80F33
:102E2000F11DE80FF11D859194918F3F2FEF9207CF
:102E300011F4188211C09C879927880F991FEA8581
:102E4000FB85E80FF91F6591749140E0CE010E9467
:102E5000E41689858F5F8987DF91CF91089560E0BF
:102E60000C94FF1660E00C94D9160F93CF93DF9368
:102E7000EC0161115DC08981882309F459C08D89F5
:102E8000811156C02D853E858A899B89880F991F9F
:102E9000820F931FFC01859194910097D1F4898949
:102EA000882321F01B8A1A8AF90111C019828881AE
:102EB00060E0882331F0CE010E94FF168A899B8949
:102EC00025C0CE01DF91CF910F910C94C81685914A
:102ED0009491BC01769567957695679580FF1DC0A6
:102EE000AC01A6E056954795AA95E1F7292F2695BE
:102EF0002695269520514F716F7000E0CE010E94FB
:102F00007A168A899B8901969B8B8A8B880F991FD9
:102F1000ED85FE85E80FF91FDACF492F6F7320E0AA
:102F2000CE010E94AB168A899B8901969B8B8A8B66
:102F3000DF91CF910F91089560E00C943517CF93F6
:102F4000DF93EC016111B9C08F89882309F4B5C002
:102F50008D89811105C0CE01DF91CF910C94C816E7
:102F600081508D8B8DA1811138C08BA19CA10196C0
:102F70009C01220F331FEF8DF8A1E20FF31F259163
:102F80003491422F47704EA3A90163E056954795AF
:102F90006A95E1F7BA0176956795232F26952695D0
:102FA0002FA36F732C81629F602D11246DA341703C
:102FB00040932E069CA38BA329A130E08217930790
:102FC00060F08AA1882329F0281B31093CA32BA398
:102FD00004C060E0CE010E94C8168DA181508DA36F
:102FE000288D2F5F288F4C893FA1340F8C85380F97
:102FF0003A836B8D662361F070E0822F992787FDFD
:1030000090950E94AF2C8C8D869F300D11243A83B1
:103010008A8190E0CB966BE370E00E94AF2C8A83AC
:103020003E893B83698D662371F0772767FD709534
:10303000822F992787FD90950E94AF2C8A8D869FBD
:10304000300D11243B836D8D662391F0822F9927DB
:1030500087FD909570E00E94AF2CCB0162E070E09C
:103060000E94AF2C2E8D9B81289F900D11249B8355
:103070008B814F3339F08A300CF089E087FD80E096
:103080008B8301C01B82F894EA81F0E0EB50F94F8A
:10309000E491E093310698A58D81989F802D1124AD
:1030A0009B81899F802D11249EA1899F802D1124B1
:1030B0008093300680932F067894DF91CF91089506
:1030C00060E00C949F1760913006662321F1809197
:1030D00033068F5F80933306909131068917D8F0BD
:1030E0008091320691E08927809332061092330650
:1030F00080912E06882369F09091B20183E4989F15
:10310000802D1124895B8093B2010E948F2C9093B3
:103110002F060C94BD1608951F920F920FB60F92B2
:1031200011242F933F934F935F936F937F938F93CC
:103130009F93AF93BF93EF93FF930E946318FF9108
:10314000EF91BF91AF919F918F917F916F915F911F
:103150004F913F912F910F900FBE0F901F90189598
:10316000CF93DF93EC0160E00E94D9168EE397E0E5
:103170009E878D871B8A1A8A81E0898389E08E8BDE
:10318000198E1B8E1D8EDF91CF910895CF93DF9303
:10319000EC0160E00E94D91686E397E09E878D8758
:1031A0001B8A1A8A81E0898389E08E8B198E1B8E97
:1031B0001D8EDF91CF910895CF93DF93EC0160E0F6
:1031C0000E94D91680E397E09E878D871B8A1A8A12
:1031D00081E0898389E08E8B198E1B8E1D8EDF9195
:1031E000CF910895FC01862F992787FD90956681E0
:1031F00070E06F5F7F4F0E94AF2C858308958091B0
:10320000640690E020916506821B91090895209143
:10321000650680916406281750F4E22FF0E0EA5921
:10322000F94F808190E02F5F2093650608958FEF1E
:103230009FEF0895E091650680916406E81730F4E9
:10324000F0E0EA59F94F808190E008958FEF9FEF09
:1032500008950895CF92DF92EF92FF920F931F93FC
:10326000CF93DF937C01CB018A012091400622237A
:1032700089F0EB016B01C40ED51ECC15DD0569F09C
:103280006991D701ED91FC910190F081E02DC7018A
:103290000995F3CF642F0E948D1AC801DF91CF9159
:1032A0001F910F91FF90EF90DF90CF900895CF93F3
:1032B000DF931F92CDB7DEB76983209140062223AA
:1032C000D1F020914106203240F021E030E0FC01B5
:1032D0003383228380E090E015C080914206E82F7E
:1032E000F0E0ED5BF94F998190838F5F8093420608
:1032F0008093410605C061E0CE0101960E948D1ABF
:1033000081E090E00F90DF91CF910895FC0113824E
:10331000128248EE53E060E070E044835583668398
:10332000778389E092E09183808308951092650607
:103330001092640610924206109241060C94D8191D
:10334000862F413208F040E266E676E00E94F619E8
:103350001092650680936406089521E00C94A019EC
:103360000C94A01981E0809340066093630610924C
:1033700042061092410608950C94B2190F93062F3D
:1033800021E04091410663E476E0809163060E946B
:103390003A1A1092420610924106109240060F917E
:1033A000089561E00C94BE1984E396E00C948619AC
:1033B0001092F30681E08093F1061092F00661E02E
:1033C00082E10E94D92561E083E10E94D925E9EBE1
:1033D000F0E080818E7F808380818D7F808388E490
:1033E0008093B80085E48093BC000895413208F0D2
:1033F0003FC09091F3069111FCCF91E09093F306BA
:103400002093F1062FEF209386061092CB06240F0F
:103410002093CA069093F2069091F206880F892BAA
:103420008093F2068091F006813041F41092F0060C
:103430008091F2068093BB0085EC01C085EE8093FD
:10344000BC008091F3068130E1F38091CB068417B4
:1034500010F44091CB062CEC36E0FB01D9018A2F09
:10346000821B841718F48D918193F9CF842F0895CE
:1034700080E008950F93413208F046C09091F30622
:103480009111FCCF92E09093F3060093F1069FEF29
:10349000909386061092CB064093CA06FB016CEC13
:1034A00076E0DB019A2F961B941718F491919D9367
:1034B000F9CF1092F2069091F206880F892B809333
:1034C000F2068091F006813041F41092F00680916E
:1034D000F2068093BB0085EC01C085EE8093BC00B2
:1034E000222321F08091F3068230E1F38091860659
:1034F0008F3F61F080918606803251F08091860680
:10350000803341F483E007C081E005C080E003C060
:1035100082E001C084E00F910895613298F4209117
:10352000F306243089F46093A806FC018AEA96E049
:10353000DC012A2F281B261718F421912D93F9CF8F
:1035400080E0089581E0089582E0089585ED8093FC
:10355000BC008091BC0084FDFCCF1092F30608955E
:1035600085EC8093BC001092F30608951F920F9291
:103570000FB60F9211242F933F934F935F936F9346
:103580007F938F939F93AF93BF93EF93FF9380911C
:10359000B900887F803609F49CC068F5883209F448
:1035A0005BC090F4803109F454C038F4882309F4E6
:1035B000F5C0883009F44DC0F5C0883109F44CC01D
:1035C000803209F45DC0EEC0803409F468C048F46C
:1035D000803309F455C0883309F0E4C0809386062F
:1035E000A8C0803509F44FC0883509F45DC088341F
:1035F00009F0D8C0D5C0883909F4C6C0A8F4883706
:1036000009F467C038F4883609F463C0803709F4D8
:1036100060C0C8C0883809F4B7C0803909F45FC0F9
:10362000803809F0BFC05BC0803B09F485C038F426
:10363000803A09F466C0883A09F47EC0B3C0803C81
:1036400009F4A6C0883C09F4A3C0883B09F489C0EA
:10365000A9C08091F20610C09091CB068091CA0655
:10366000981770F5E091CB0681E08E0F8093CB0622
:10367000F0E0E453F94F80818093BB0085EC85C076
:10368000809386068DC0E091CB0681E08E0F8093FB
:10369000CB068091BB00F0E0E453F94F808390911A
:1036A000CB068091CA066DC0E091CB0681E08E0FFB
:1036B0008093CB068091BB00F0E0E453F94F808308
:1036C0008091F10681116CC081E08093F00684EA5C
:1036D00060C083E08093F30610928706CFCF80917D
:1036E0008706803208F050C0E091870681E08E0F97
:1036F000809387068091BB00F0E0E857F94F808304
:10370000BDCF80918706803230F4E0918706F0E0EB
:10371000E857F94F10820E94A61A6091870670E060
:10372000E091EC06F091ED0688E896E0099510929C
:1037300087060E94B01A36C084E08093F306109288
:10374000A9061092A806E091EE06F091EF06099501
:103750008091A806811105C081E08093A80610928F
:10376000AA06E091A90681E08E0F8093A906F0E0F9
:10377000E655F94F80818093BB009091A906809116
:10378000A806981708F47ACF85E88093BC000AC091
:1037900085EC8093BC001092F30604C0109286065C
:1037A0000E94A61AFF91EF91BF91AF919F918F91C7
:1037B0007F916F915F914F913F912F910F900FBE2D
:1037C0000F901F901895E091FC06F091FD06099569
:1037D000E0910007F09101070994FF920F931F9366
:1037E000CF93DF93C82FD42F152F062FF72E87FFE7
:1037F0000AC040E050E0BA0187E70E94ED1B82302A
:1038000008F04DC0CF77E091FC06F091FD060995D8
:10381000E091FE06F091FF060995E0910007F09116
:1038200001070995E0910007F091010709958F3F85
:10383000C9F7E0910207F09103078C2F0995E091F9
:103840000207F09103078F2D0995E0910207F0918F
:103850000307802F0995E0910207F0910307812F5C
:103860000995E0910207F09103078D2F0995C03467
:1038700021F0C83421F081E003C085E901C087E868
:10388000E0910207F09103070995CAE0E091000773
:10389000F0910107099587FF02C0C150B9F7DF9188
:1038A000CF911F910F91FF900895909303078093FC
:1038B000020770930107609300075093FF0640933F
:1038C000FE063093FD062093FC060895EF92FF92CA
:1038D0000F931F93CF93DF9300D000D01F92CDB7EB
:1038E000DEB714E6E0910007F09101070995115049
:1038F000C9F740E050E0BA0180E40E94ED1B81303E
:1039000009F057C04AEA51E060E070E088E40E94A4
:10391000ED1B813039F57E0185E0E80EF11C8E014A
:103920000F5F1F4FE0910007F09101070995F80123
:1039300081938F01EE15FF05A9F78B818130C9F5C1
:103940008C818A3AB1F508EA11E640E050E060E087
:1039500070E489EE0E94ED1B8823A9F10150110942
:10396000A1F727C040E050E0BA0189EE0E94ED1BAC
:10397000823020F492E0F92E99EE03C0FF24F394F4
:1039800091E408EA11E640E050E0BA01892F9D83F6
:103990000E94ED1B9D81882321F00150110999F7A8
:1039A00008C040E052E060E070E080E50E94ED1B5E
:1039B0008111F12CF09247070E94E31B81E0FF2068
:1039C00009F180E01FC040E050E0BA018AE70E94A0
:1039D000ED1B8111EECF8E010F5F1F4FE0910007AD
:1039E000F09101070995F80181938F01EE15FF050C
:1039F000A9F7898186FF03C02CE0F22EDBCF84E09B
:103A0000F82ED8CF0F900F900F900F900F90DF915E
:103A1000CF911F910F91FF90EF9008958F929F92F9
:103A2000AF92BF92CF92DF92EF92FF920F931F93CC
:103A3000CF93DF931F92CDB7DEB76C0179014801B8
:103A4000E89497F88114910409F484C0C401820FAA
:103A5000931F8130924008F07DC08091470783FD1D
:103A600007C0E9E0440F551F661F771FEA95D1F79D
:103A700081E50E94ED1B811165C048EEA42E43E054
:103A8000B42EE0910007F091010709958F3F29F4CA
:103A900081E0A81AB108A9F755C08E3F09F052C0BD
:103AA00032E0A32EBA2CAE18BF08A818B908E1144A
:103AB000F10449F0E0910007F0910107099591E0C8
:103AC000E91AF108F4CF17FF28C0E091F606F0914B
:103AD000F7060995E091FA06F091FB060995E09149
:103AE0000007F09101070995F6010995E091F806A4
:103AF000F091F90689830995F1E08F1A910889817F
:103B00008114910411F08111E5CFE091F406F09158
:103B1000F5060995A80CB91C0CC0E0910007F091BE
:103B200001070995D6018D936D01B1E08B1A9108BB
:103B3000A1F7E0910007F09101070995E1E0AE1AC5
:103B4000B108B9F70E94E31B81E090E0892821F4D5
:103B500080E002C084E090E00F90DF91CF911F9150
:103B60000F91FF90EF90DF90CF90BF90AF909F901C
:103B70008F9008950F931F93E0910407F09105072C
:103B80009C0122503109408551854250510924172A
:103B9000350768F4A181B0E00E94042D02891389E1
:103BA00024893589600F711F821F931F03C060E055
:103BB00070E0CB011F910F910895CF93DF93EC013B
:103BC000E0910407F0910507198218828C819D818C
:103BD00081309105B9F0208531858217930790F4E3
:103BE0009F838E83009719F00E94BA1D04C06685DA
:103BF000778580899189688779878A879B8780E024
:103C000090E002C081E090E0DF91CF9108958F9223
:103C10009F92AF92BF92CF92DF92EF92FF920F935B
:103C20001F93CF93DF9300D000D0CDB7DEB77C01D8
:103C3000C0900407D09005078230910508F473C046
:103C4000F60180859185E816F90608F06CC0808140
:103C5000813021F0823009F44CC065C04701969450
:103C600087948E0C9F1C94013170892C9924869422
:103C7000A12CB12CF60182859385A485B585B5016B
:103C8000A401480F591F6A1F7B1F2F3FF1E03F0718
:103C900029F002E010E0CE0101961BC001E010E027
:103CA0002FEF31E0CE0101960E940E1D892BD9F530
:103CB000F60142855385648575854F5F5F4F6F4F71
:103CC0007F4F480D591D6A1D7B1D20E030E0CE015D
:103CD00002960E940E1D892B31F589819A81E0FEA2
:103CE00006C024E0969587952A95E1F71EC09F703F
:103CF0001CC097013327220F331FEF2CFF24F6013E
:103D000042855385648575854E0D5F1D611D711D4E
:103D100002E010E0CE0101960E940E1D892B19F4DD
:103D200089819A8102C081E090E00F900F900F90FE
:103D30000F90DF91CF911F910F91FF90EF90DF9047
:103D4000CF90BF90AF909F908F900895EF92FF9289
:103D50000F931F93CF93DF93EC01E0900407F09053
:103D60000507088119810F5F1F4F19F483E090E068
:103D700049C0488559856A857B854115510561058E
:103D80007105A1F3C8018F709927892BA1F54F5FA9
:103D90005F4F6F4F7F4F488759876A877B878E8138
:103DA0009F81F701009731F48481958108171907E5
:103DB000E8F621C0218130E021503109A80164E0FA
:103DC000569547956A95E1F724233523232B99F4DB
:103DD0000E94071E8230910598F0F70120853185F9
:103DE0008217930718F69F838E830E94BA1D6887F7
:103DF00079878A879B871983088380E090E002C0D7
:103E000081E090E0DF91CF911F910F91FF90EF90B3
:103E10000895CF92DF92EF92FF920F931F93CF936B
:103E2000DF93EC016A017B0102E010E02EEF31E04C
:103E30000E940E1D892BC1F48881998185359A4A8B
:103E4000A9F426E330E0B701A601CE010E940E1DC1
:103E5000892B41F481E0288139812634314439F4B9
:103E600080E005C081E003C083E001C082E0DF9113
:103E7000CF911F910F91FF90EF90DF90CF90089519
:103E8000BF92CF92DF92EF92FF920F931F93CF9347
:103E9000DF93EC016B01FB0180818F3219F4FFEF9E
:103EA000CF1ADF0A1D821C82F6018081803260F405
:103EB000CE010E94DD1DE0910407F0910507068008
:103EC000F781E02D1082B0C0E0E2BE2EEA81FB81D6
:103ED000DF01CF010B96A817B90711F0BD92FBCFF8
:103EE00050E080E068E071E0780FD601A80FB11DC6
:103EF0004C914032D0F04F32C1F04E3209F47AC0CA
:103F0000561708F068C04F3708F065C0842F90E05E
:103F1000A5E1B2E02D91222309F460C0332727FDEB
:103F2000309528173907B1F756C0552309F453C007
:103F3000C70ED11C81E0403208F080E08387CE01BB
:103F40000E94DD1D0097B1F5E0910407F09105078F
:103F5000E680F780288139812F70332775E0220FA2
:103F6000331F7A95E1F7488559856A857B8500E29C
:103F700010E0C7010E940E1D892B39F5F7018081E1
:103F80008823D9F0838583FD10C06A817B81C701B6
:103F9000DB019B01255F3F4FA217B30781F1FC01B5
:103FA0005191CF014D915417B9F3CE010E94A61E35
:103FB000009781F283309105B9F5EA81FB81838511
:103FC000882331F083E090E02FC081E090E02CC0A6
:103FD00084E090E029C085E090E026C08FE9840F5E
:103FE0008A3108F44052DF01A50FB11D4C935F5F89
:103FF000872F79CF683079F758E06BE0F9CFFB0174
:10400000838581110FC0E0910407F09105070680B8
:10401000F781E02D838584FFDBCF828D938D9D8397
:104020008C8354CF80E090E0DF91CF911F910F916E
:10403000FF90EF90DF90CF90BF9008954F925F92E6
:104040006F927F92AF92BF92CF92DF92EF92FF92E8
:104050000F931F93CF93DF93CDB7DEB7A8970FB61B
:10406000F894DEBF0FBECDBF5C0110920507109221
:104070000407009709F4D0C00E94661C80FDCFC0E1
:1040800040E050E0BA01CE0101960E94091F813044
:1040900009F500E110E02EEB31E040E050E0BA011C
:1040A000CE0101960E940E1D892B19F081E090E04F
:1040B000B8C08D81811103C089E090E0B2C049840D
:1040C0005A846B847C84B301A201CE0101960E94C4
:1040D000091F03C0412C512C3201833039F3811167
:1040E000EBCF04E210E02DE030E0B301A201CE01FD
:1040F00001960E940E1D892BC9F62A853B8540E05A
:1041000050E0211531054105510521F4288D398DE7
:104110004A8D5B8DAC81B0E00E94132D6DA37EA310
:104120008FA398A70A811B8120E030E0400E511E2A
:10413000621E731ED5011A964D925D926D927C920D
:104140001D97498111964C931197CD80DE8015966D
:10415000DC92CE9214978F819885A0E0B0E0009712
:10416000A105B10521F48C899D89AE89BF89F4E050
:10417000D694C794FA95E1F7E12CF12CBC01CD015E
:10418000601B710B820B930B0DA11EA12FA138A5F3
:10419000601B710B820B930B6C197D098E099F09B3
:1041A000242F30E040E050E00E94C32C2E5F3F4FB0
:1041B0004F4F5F4FD50119963C932E931897273F89
:1041C000BFE03B074105510540F0273F3F4F410508
:1041D000510508F071CF82E001C081E0D5018C93D8
:1041E0000DA11EA12FA138A5400E511E621E731EE7
:1041F0001E964D925D926D927C9251974C0C5D1C77
:104200006E1C7F1CF501428A538A648A758A128269
:10421000B0920507A092040780E090E002C082E01F
:1042200090E0A8960FB6F894DEBF0FBECDBFDF9129
:10423000CF911F910F91FF90EF90DF90CF90BF90A3
:10424000AF907F906F905F904F9008950F931F9362
:10425000CF93DF93CDB7DEB7E8970FB6F894DEBF04
:104260000FBECDBF00910407109105070115110580
:1042700069F1F80112829E012F5F3F4F3783268339
:10428000205E3F4F38AB2FA7BC01CE018D960E9418
:10429000401F0097F9F489818823D1F08C8584FD33
:1042A00017C08B8D9C8DF801978F868F8D8D9E8D7D
:1042B000AF8DB8A1828F938FA48FB58F168A178A7E
:1042C000108E118E81E0828380E003C088E001C0FF
:1042D00083E090E0E8960FB6F894DEBF0FBECDBF46
:1042E000DF91CF911F910F9108952F923F924F929E
:1042F0005F926F927F928F929F92AF92BF92CF9276
:10430000DF92EF92FF920F931F93CF93DF9300D032
:1043100000D0CDB7DEB789839A837B014A018091B3
:104320000407909105079C838B83FA011182108208
:10433000009709F4BBC0FC01828180FFBAC0828D66
:10434000938DA48DB58D46895789608D718D841BA1
:10435000950BA60BB70BA70160E070E084179507DB
:10436000A607B70708F47C01A980BA80612CB2E0E7
:104370007B2EE114F10409F496C0EB81FC812688C0
:104380003788408C518CD201C1019170AA27BB277C
:10439000892B8A2B8B2B09F044C0218130E040E02F
:1043A00050E0C201B101A9E0969587957795679590
:1043B000AA95D1F70E94C32C672B682B692BA9F40F
:1043C000EB81FC8123282428252819F4868D978DDC
:1043D00004C080A191A10E94071EEB81FC81823064
:1043E000910580F091A380A31382EB81FC8180A1D1
:1043F00091A10E94BA1DEB81FC81611571058105B7
:10440000910511F4128258C02381DC01CB01820F87
:10441000911DA11DB11D82A393A3A4A3B5A32F5FDA
:104420002383EB81FC81268937893170C301821B8C
:10443000930B67018E159F0508F46C01EB81FC81DD
:10444000828142A153A164A175A1860186FF04C0A7
:10445000106889819A8101C0C5010E940E1D0097D4
:1044600041F0EB81FC811282029731F586E090E009
:1044700025C0AC0CBD1CEB81FC8186899789A08D81
:10448000B18D8C0D9D1DA11DB11D868B978BA08FAD
:10449000B18FF401808191818C0D9D1D918380836A
:1044A000EC18FD0866CF80E090E008C088E090E05E
:1044B00005C087E090E002C081E090E00F900F908F
:1044C0000F900F90DF91CF911F910F91FF90EF9080
:1044D000DF90CF90BF90AF909F908F907F906F9024
:1044E0005F904F903F902F9008954F925F926F9200
:1044F0007F928F929F92AF92BF92CF92DF92EF9274
:10450000FF920F931F93CF93DF9300D000D0CDB7CE
:10451000DEB79B01009104071091050701151105F5
:1045200009F4D0C0D80112964C91129740FFCDC02B
:104530005A964D915D916D917C915D9769017C01D9
:104540004C155D056E057F0510F46A017B01F801CD
:1045500046885788608C718C168A178A108E118E47
:10456000C114D104E104F10409F4B2C08180912C9A
:10457000A12CB12C39E0880C991CAA1CBB1C3A95C3
:10458000D1F74114510461047104C9F1B1E04B1A2F
:10459000510861087108C701B601615071098109AC
:1045A0009109A50194010E94C32C29833A834B836E
:1045B0005C83C301B201A50194010E94C32C8981CF
:1045C0009A81AB81BC8182179307A407B507B8F025
:1045D00088279927DC0188199909AA09BB09842130
:1045E0009521A621B721F801868B978BA08FB18FDB
:1045F000C81AD90AEA0AFB0A80A191A128C0D801E9
:104600005E968D919C915F9791969C938E939097D7
:104610001EC00E94071E82309105F8F0F801208527
:10462000318582179307C8F4F80191A380A34689C6
:104630005789608D718D480D591D6A1D7B1D468BF4
:10464000578B608F718FC818D908EA08FB088C1443
:104650009D04AE04BF04E8F204C0D80112961C9277
:104660001FC0F80146895789608D718D4C0D5D1D05
:104670006E1D7F1D468B578B608F718F29E0F694DE
:10468000E794D794C7942A95D1F7C394C3820E9424
:10469000BA1D611571058105910529F4F801128291
:1046A00081E090E017C0DC01CB010197A109B109BD
:1046B0008C0D911DA11DB11DF80182A393A3A4A38C
:1046C000B5A306C088E090E005C087E090E002C096
:1046D00080E090E00F900F900F900F90DF91CF91BE
:1046E0001F910F91FF90EF90DF90CF90BF90AF9010
:1046F0009F908F907F906F905F904F9008950F9351
:104700001F93CF93DF93CDB7DEB7AC970FB6F89476
:10471000DEBF0FBECDBF8C01E0910407F09105070D
:104720003097F9F0CE010196978386838096F80141
:1047300093838283C8010E94401F009771F489818E
:10474000882341F08C8584FF0FC08B8D9C8DF801F0
:1047500095838483C8010E94DD1D8330910521F07B
:1047600005C088E090E002C084E090E0AC960FB60F
:10477000F894DEBF0FBECDBFDF91CF911F910F9197
:10478000089560E0809107070C94D92561E080913D
:1047900007070C94D92562E070E080E290E00E9467
:1047A000242D90930A078093090708950F931F9370
:1047B000CF93DF938B018BE097E00E947F23EC0186
:1047C000009739F4B8018091090790910A070E9477
:1047D000692FCE01DF91CF911F910F910895EF9234
:1047E000FF920F931F93CF93DF93EC01862F7A01F3
:1047F0008901609307077093080761E00E94A02574
:104800000E94C62326EC33E241EC53E2B701C80113
:104810000E94551C0E94661C87E197E00E941E20A2
:1048200065E272E0CE01DF91CF911F910F91FF9071
:10483000EF900C94D62386E097E00C94CB231F9244
:104840000F920FB60F9211242F933F938F939F9344
:10485000AF93BF9380913E0790913F07A09140078F
:10486000B091410730913D0723E0230F2D3720F40D
:104870000196A11DB11D05C026E8230F0296A11DBA
:10488000B11D20933D0780933E0790933F07A0936F
:104890004007B09341078091420790914307A09150
:1048A0004407B09145070196A11DB11D80934207B1
:1048B00090934307A0934407B0934507BF91AF91EE
:1048C0009F918F913F912F910F900FBE0F901F904E
:1048D00018952FB7F89460913E0770913F0780912B
:1048E0004007909141072FBF08953FB7F8948091FA
:1048F000420790914307A0914407B091450726B520
:10490000A89B05C02F3F19F00196A11DB11D3FBF07
:104910006627782F892F9A2F620F711D811D911D97
:1049200042E0660F771F881F991F4A95D1F70895B7
:10493000CF92DF92EF92FF92CF93DF936B017C01D6
:104940000E947524EB01C114D104E104F10489F043
:104950000E945F2A0E9475246C1B7D0B683E734089
:1049600090F381E0C81AD108E108F108C851DC4F82
:10497000EACFDF91CF91FF90EF90DF90CF90089535
:10498000789484B5826084BD84B5816084BD85B52A
:10499000826085BD85B5816085BDEEE6F0E08081F1
:1049A00081608083E1E8F0E0108280818260808312
:1049B000808181608083E0E8F0E080818160808395
:1049C000E1EBF0E0808184608083E0EBF0E08081C7
:1049D00081608083EAE7F0E0808184608083808169
:1049E0008260808380818160808380818068808311
:1049F0001092C10008958E3008F08E50877020917B
:104A0000B30190E4299F90011124822B80937C00B4
:104A100080917A00806480937A0080917A0086FD8C
:104A2000FCCF809178002091790090E0922B08953E
:104A30001F93CF93DF93182FEB0161E00E94A02515
:104A4000209711F460E004C0CF3FD10539F461E054
:104A5000812FDF91CF911F910C94D925E12FF0E0A8
:104A6000EE5AF84FE491E330F9F048F4E130B9F050
:104A7000E230A1F584B5806284BDC8BD34C0E730A2
:104A8000E9F0E83019F1E43049F580918000806266
:104A900080938000D0938B00C0938A0024C084B59B
:104AA000806884BDC7BD1FC08091800080688093EE
:104AB0008000D0938900C093880015C08091B00019
:104AC00080688093B000C093B3000DC08091B000A7
:104AD00080628093B000C093B40005C0C038D10597
:104AE0000CF0B5CFAFCFDF91CF911F9108958330F8
:104AF00081F028F4813099F08230A1F00895873058
:104B0000A9F08830B9F08430D1F4809180008F7D95
:104B100003C0809180008F7780938000089584B5D2
:104B20008F7702C084B58F7D84BD08958091B000D9
:104B30008F7703C08091B0008F7D8093B00008957F
:104B4000CF93DF9390E0FC01EA59F84F2491FC01E8
:104B5000E658F84F8491882349F190E0880F991F17
:104B6000FC01EE55F84FA591B4918856984FFC0181
:104B7000C591D4919FB7611108C0F8948C9120958C
:104B800082238C93888182230AC0623051F4F89486
:104B90008C91322F309583238C938881822B88834C
:104BA00004C0F8948C91822B8C939FBFDF91CF919E
:104BB00008950F931F93CF93DF931F92CDB7DEB766
:104BC000282F30E0F901EE5AF84F8491F901EA59A3
:104BD000F84F1491F901E658F84F04910023C9F0F9
:104BE000882321F069830E9477256981E02FF0E016
:104BF000EE0FFF1FE856F84FA591B4919FB7F894B8
:104C00008C91611103C01095812301C0812B8C937D
:104C10009FBF0F90DF91CF911F910F910895CF9378
:104C2000DF93282F30E0F901EE5AF84F8491F90113
:104C3000EA59F84FD491F901E658F84FC491CC23C2
:104C400091F081110E947725EC2FF0E0EE0FFF1F0D
:104C5000E257F84FA591B4912C912D2381E090E07B
:104C600021F480E002C080E090E0DF91CF910895D0
:104C700008950E94C0240E9438260E94B808C0E00F
:104C8000D0E00E940A092097E1F30E940000F9CFCA
:104C9000CF92DF92EF92FF920F931F93CF93DF9308
:104CA0006C017A01EB01E60EF71E00E010E0CE1574
:104CB000DF0561F06991D601ED91FC910190F081E1
:104CC000E02DC6010995080F191FF1CFC801DF912A
:104CD000CF911F910F91FF90EF90DF90CF900895AB
:104CE0006115710581F0DB010D900020E9F7AD0140
:104CF00041505109461B570BDC01ED91FC9102809C
:104D0000F381E02D099480E090E00895EF92FF9206
:104D10000F931F93CF93DF938C01FB01C0E0D0E092
:104D200064917F018FEFE81AF80A662361F0D801D9
:104D3000ED91FC910190F081E02DC8010995C80F1B
:104D4000D91FF701EDCFCE01DF91CF911F910F91C8
:104D5000FF90EF900895DC01ED91FC91DB0114963A
:104D60004D915C9115976D917C910280F381E02DBE
:104D700009940C947026DC01ED91FC910190F08176
:104D8000E02D099467E272E00C9470260F931F9354
:104D9000CF93DF93EC010E9486268C01CE010E9406
:104DA000C226800F911FDF91CF911F910F9108951F
:104DB0000F931F93CF93DF93EC010E9470268C0119
:104DC000CE010E94C226800F911FDF91CF911F91CB
:104DD0000F9108958F929F92AF92BF92CF92DF92E0
:104DE000EF92FF920F931F93CF93DF93CDB7DEB770
:104DF000A1970FB6F894DEBF0FBECDBF7C01C42EC5
:104E0000E52FCB01D22E19A221E02D1510F02AE0BA
:104E1000D22E8E010F5D1F4F8D2C912CA12CB12C09
:104E20006C2D7E2FA50194010E94C32C8C2DD29E47
:104E300080191124015011098A3014F4805D01C0D9
:104E4000895CF8018083211531054105510521F068
:104E5000C22EE32FCA01E4CFB801C7010E94702619
:104E6000A1960FB6F894DEBF0FBECDBFDF91CF91F4
:104E70001F910F91FF90EF90DF90CF90BF90AF9078
:104E80009F908F900895CF92DF92EF92FF920F93B1
:104E90001F93CF93DF93EC016A017B01211531054C
:104EA00079F4E881F9810190F081E02D642FDF91A0
:104EB000CF911F910F91FF90EF90DF90CF900994C9
:104EC0002A303105E9F477FF1AC06DE20E94BB2653
:104ED0008C0144275527BA014C195D096E097F09D9
:104EE0002AE0CE010E94EA26800F911FDF91CF9128
:104EF0001F910F91FF90EF90DF90CF9008952AE0DF
:104F0000B701A601CE01DF91CF911F910F91FF90C4
:104F1000EF90DF90CF900C94EA269A01AB016627C0
:104F200057FD6095762F0C9443272115310541F4E8
:104F3000DC01ED91FC910190F081E02D642F09944A
:104F40000C94EA269A01AB0160E070E00C9495277E
:104F50004F925F926F927F928F929F92AF92BF9289
:104F6000CF92DF92EF92FF920F931F93CF93DF9335
:104F7000EC016A017B01B22E9A01AB01C701B601B7
:104F80000E947B2C882319F06AE272E027C0260178
:104F90003701E89477F82FEF3FEF4FE75FE7C30162
:104FA000B2010E947B2C81110DC02FEF3FEF4FE724
:104FB0005FE7C301B2010E94C52A18161CF46EE215
:104FC00072E00CC02FEF3FEF4FE75FE4C701B6017F
:104FD0000E94142C1816ACF462E372E0CE01DF914B
:104FE000CF911F910F91FF90EF90DF90CF90BF90E6
:104FF000AF909F908F907F906F905F904F900C94A8
:1050000070262FEF3FEF4FE75FECC701B6010E941C
:10501000C52A87FDE1CF20E030E0A901C701B60134
:105020000E94C52A87FF0AC06DE2CE010E94BB26FE
:105030008C01F7FAF094F7F8F09402C000E010E069
:10504000A12C60E070E080E09FE3AB1441F020E031
:1050500030E040E251E40E94C92AA394F6CF9B01BC
:10506000AC01C701B6010E94612A6B017C010E945C
:10507000362B2B013C010E94622B9B01AC01C70126
:10508000B6010E94602A6B017C012AE0B301A201F3
:10509000CE010E94EA26080F191FBB2039F066E3F3
:1050A00072E0CE010E947026080F191F7B2C77201A
:1050B00041F120E030E040E251E4C701B6010E9436
:1050C000182C6B017C010E94312B4B01AA2497FC08
:1050D000A094BA2C2AE030E0B501A401CE010E94D0
:1050E0004327080F191FC501B4010E94642B9B01BF
:1050F000AC01C701B6010E94602A6B017C017A9461
:10510000D6CFC801DF91CF911F910F91FF90EF9003
:10511000DF90CF90BF90AF909F908F907F906F90D7
:105120005F904F9008950C94A8274F925F926F92D2
:105130007F92AF92BF92CF92DF92EF92FF920F9346
:105140001F93CF93DF93CDB7DEB729013A01621BDE
:10515000730B840B950B29893A894B895C892A1931
:105160003B094C095D09298B3A8B4B8B5C8B9B016E
:10517000AC0169897A898B899C890E947F2CE4180B
:10518000F50806091709A80197010E94E52C2A0DC8
:105190003B1D4C1D5D1DCA01B901DF91CF911F91CF
:1051A0000F91FF90EF90DF90CF90BF90AF907F90E6
:1051B0006F905F904F900895FC01808191810C94D5
:1051C000F92DCF93DF93EC0188819981009711F03D
:1051D0000E94F92D198218821D821C821B821A825C
:1051E000DF91CF9108950F931F93CF93DF93EC013D
:1051F0008B016F5F7F4F888199810E94882E009775
:1052000031F0998388831B830A8381E001C080E0A9
:10521000DF91CF911F910F910895CF93DF93EC0110
:1052200088819981892B29F08A819B81861797072C
:1052300060F4CE010E94F328882341F08C819D8187
:10524000892B19F4E881F981108281E0DF91CF91F7
:105250000895EF92FF920F931F93CF93DF93EC018A
:105260007B018A01BA010E940D29811104C0CE017F
:105270000E94E12807C01D830C83B70188819981B2
:105280000E94692FCE01DF91CF911F910F91FF9066
:10529000EF900895FC011182108213821282158210
:1052A00014826115710559F0FB0101900020E9F7A6
:1052B000AF0141505109461B570B0C942929089501
:1052C000CF93DF93EC01FB018617970761F06081B4
:1052D00071816115710529F0448155810E94292948
:1052E00002C00E94E128CE01DF91CF910895FC0118
:1052F0001182108213821282158214820C9460290A
:10530000CF93DF93EC016115710561F0FB01019012
:105310000020E9F7AF0141505109461B570B0E948D
:10532000292902C00E94E128CE01DF91CF91089582
:105330000F931F93CF93DF93CDB7DEB762970FB66E
:10534000F894DEBF0FBECDBF8C01CB01F8011182F6
:105350001082138212821582148250E0BE016F5FA8
:105360007F4F0E94702FBE016F5F7F4FC8010E9468
:10537000802962960FB6F894DEBF0FBECDBFDF91D5
:10538000CF911F910F910895EF92FF920F931F936A
:10539000CF93DF93CDB7DEB7A1970FB6F894DEBFFA
:1053A0000FBECDBF7C01CB01BA01F7011182108283
:1053B000138212821582148242E0420F8E010F5F27
:1053C0001F4F0E94402DBC01C7010E948029A19659
:1053D0000FB6F894DEBF0FBECDBFDF91CF911F9106
:1053E0000F91FF90EF900895EF92FF920F931F930C
:1053F000CF93DF93EC017B010C811D816115710559
:1054000011F480E016C04115510591F0040F151FED
:10541000B8010E940D298823A1F3288139818C814C
:105420009D81B701820F931F0E94692F1D830C83FA
:1054300081E0DF91CF911F910F91FF90EF90089540
:10544000CF93DF93EC01FB01448155816081718131
:105450000E94F429811103C0CE010E94E128CE01EF
:10546000DF91CF910895CF93DF93EC016115710522
:1054700069F0FB0101900020E9F7AF0141505109AB
:10548000461B570B0E94F429811103C0CE010E94D4
:10549000E128CE01DF91CF910895FC0184819581AF
:1054A0006817790720F480819181009729F4109280
:1054B000460786E497E00895860F971F089508959C
:1054C0005058BB27AA270ED075C166D130F06BD1DA
:1054D00020F031F49F3F11F41EF45BC10EF4E0950F
:1054E000E7FB51C1E92F77D180F3BA176207730741
:1054F0008407950718F071F49EF58FC10EF4E095BE
:105500000B2EBA2FA02D0B01B90190010C01CA017D
:10551000A0011124FF27591B99F0593F50F4503E28
:1055200068F11A16F040A22F232F342F4427585F1A
:10553000F3CF469537952795A795F0405395C9F732
:105540007EF41F16BA0B620B730B840BBAF09150EA
:10555000A1F0FF0FBB1F661F771F881FC2F70EC089
:10556000BA0F621F731F841F48F48795779567955C
:10557000B795F7959E3F08F0B3CF9395880F08F045
:105580009927EE0F979587950895D9D008F481E073
:1055900008950CD00FC107D140F0FED030F021F4B7
:1055A0005F3F19F0F0C0511139C1F3C014D198F325
:1055B0009923C9F35523B1F3951B550BBB27AA2794
:1055C00062177307840738F09F5F5F4F220F331F06
:1055D000441FAA1FA9F333D00E2E3AF0E0E830D0D2
:1055E00091505040E695001CCAF729D0FE2F27D0D5
:1055F000660F771F881FBB1F261737074807AB07A3
:10560000B0E809F0BB0B802DBF01FF2793585F4F17
:105610002AF09E3F510568F0B6C000C15F3FECF331
:10562000983EDCF3869577956795B795F7959F5FDC
:10563000C9F7880F911D9695879597F90895E1E030
:10564000660F771F881FBB1F621773078407BA078F
:1056500020F0621B730B840BBA0BEE1F88F7E095EA
:10566000089504D06894B111D9C00895BCD088F0D1
:105670009F5790F0B92F9927B751A0F0D1F0660F3E
:10568000771F881F991F1AF0BA95C9F712C0B13059
:1056900081F0C3D0B1E00895C0C0672F782F88276C
:1056A000B85F39F0B93FCCF3869577956795B39598
:1056B000D9F73EF490958095709561957F4F8F4F07
:1056C0009F4F0895E89409C097FB3EF4909580950C
:1056D000709561957F4F8F4F9F4F9923A9F0F92FB8
:1056E00096E9BB279395F695879577956795B79536
:1056F000F111F8CFFAF4BB0F11F460FF1BC06F5F1C
:105700007F4F8F4F9F4F16C0882311F096E911C02D
:10571000772321F09EE8872F762F05C0662371F04E
:1057200096E8862F70E060E02AF09A95660F771F62
:10573000881FDAF7880F9695879597F90895990F3E
:105740000008550FAA0BE0E8FEEF16161706E8074B
:10575000F907C0F012161306E407F50798F0621B6C
:10576000730B840B950B39F40A2661F0232B242B41
:10577000252B21F408950A2609F4A140A6958FEF60
:10578000811D811D089597F99F6780E870E060E0B2
:1057900008959FEF80EC089500240A9416161706CA
:1057A00018060906089500240A9412161306140612
:1057B00005060895092E0394000C11F4882352F075
:1057C000BB0F40F4BF2B11F460FF04C06F5F7F4F2D
:1057D0008F4F9F4F089557FD9058440F551F59F014
:1057E0005F3F71F04795880F97FB991F61F09F3FCE
:1057F00079F087950895121613061406551FF2CFF7
:105800004695F1DF08C0161617061806991FF1CF46
:1058100086957105610508940895E894BB2766276D
:105820007727CB0197F908958ADF08F48FEF089561
:105830000BD0C0CFB1DF28F0B6DF18F0952309F008
:10584000A2CFA7CF1124EACFC6DFA0F3959FD1F353
:10585000950F50E0551F629FF001729FBB27F00D1E
:10586000B11D639FAA27F00DB11DAA1F649F662773
:10587000B00DA11D661F829F2227B00DA11D621FC2
:10588000739FB00DA11D621F839FA00D611D221F7C
:10589000749F3327A00D611D231F849F600D211D60
:1058A000822F762F6A2F11249F5750408AF0E1F003
:1058B00088234AF0EE0FFF1FBB1F661F771F881F4C
:1058C00091505040A9F79E3F510570F05CCFA6CF94
:1058D0005F3FECF3983EDCF3869577956795B79537
:1058E000F795E7959F5FC1F7FE2B880F911D969561
:1058F000879597F9089523DF880B990B0895DB01AD
:105900008F939F930E94132DBF91AF91A29F800D03
:10591000911DA39F900DB29F900D11240895991B86
:1059200079E004C0991F961708F0961B881F7A9596
:10593000C9F780950895AA1BBB1B51E107C0AA1F98
:10594000BB1FA617B70710F0A61BB70B881F991F20
:105950005A95A9F780959095BC01CD01089597FBC4
:10596000072E16F4009407D077FD09D00E949B2CD7
:1059700007FC05D03EF4909581959F4F0895709552
:1059800061957F4F0895A1E21A2EAA1BBB1BFD0152
:105990000DC0AA1FBB1FEE1FFF1FA217B307E4070E
:1059A000F50720F0A21BB30BE40BF50B661F771F66
:1059B000881F991F1A9469F7609570958095909546
:1059C0009B01AC01BD01CF010895052E97FB1EF48C
:1059D00000940E94FC2C57FD07D00E94C32C07FCAA
:1059E00003D04EF40C94FC2C5095409530952195A5
:1059F0003F4F4F4F5F4F08959095809570956195FB
:105A00007F4F8F4F9F4F0895A29FB001B39FC0015A
:105A1000A39F700D811D1124911DB29F700D811DDA
:105A20001124911D08950E94042DA59F900DB49FEF
:105A3000900DA49F800D911D11240895EE0FFF1F5E
:105A40000590F491E02D09940F931F93CF93DF936A
:105A5000869F8001879F100D969F100D1124C8010D
:105A60000E94612DEC01009729F0A80160E070E030
:105A70000E94622FCE01DF91CF911F910F91089567
:105A8000EF920F931F93CF93DF93E80147FF02C07C
:105A900034E101C034E0E42FFF27E7FDF095F7FF84
:105AA00003C0F195E195F109E32E022F2E2FAE01EF
:105AB0000E94A02FCE01DF91CF911F910F91EF9007
:105AC0000895CF93DF938230910510F482E090E047
:105AD000E0914A07F0914B0720E030E0A0E0B0E011
