:100000000C9452040C947A040C947A040C947A04A0
:100010000C947A040C947A040C947A040C947A0468
:100020000C947A040C947A040C947A040C9453186B
:100030000C947A040C947A040C947A040C947A0448
:100040000C94941B0C947A040C947A040C947A0407
:100050000C947A040C947A040C947A040C947A0428
:100060000C94671A0C947A04545020002020000E3F
:1000700020004D487A004D7920526164696F004D2F
:100080007920526164696F006B015E015101440186
:1000900037012A011D0110010301F600E900DC000F
:1000A000CF00C200B500A8004F7468657220202000
:1000B00020202020005365722E20636C6173732E04
:1000C00020004C6967687420636C6173732E00456F
:1000D000617379202020202020202000526F636B44
:1000E000202020202020202000506F702020202061
:1000F0002020202020005661726965642020202085
:10010000202000536369656E636520202020200055
:1001100043756C7475726520202020200044726144
:100120006D612020202020202000456475636174CB
:10013000696F6E2020200053706F72742020202081
:1001400020202000496E666F726D6174696F6E20A9
:100150000043757272656E742020202020004E6569
:100160007773202020202020202000202020202005
:1001700020202020202020000804C0C0C0C0080487
:1001800080C0C0C0080400C0C0C008040080C0C057
:1001900008040000C0C00804000080C0080400007B
:1001A00000C00804000000800804000000000804EB
:1001B000020E3EFE0804000C3CFC0804000838F85F
:1001C0000804000030F00804000020E008040000EB
:1001D00000C00804000000800804000000000804BB
:1001E00078B4B47803053F213F1208120A100A0EB2
:1001F0001C0E0C1E0C141A14161F161E131E1E1B8A
:100200001E1E1F1E3F213F3A2F3A173D173F213F29
:10021000181F02040A041F0E04040E1F0A1F0A0EF0
:100220000E1F04110E2E252E2F2A2E262929021FDD
:1002300002081F08150E04040E150E15151B151BBC
:10024000040604040C040000000017000300031F50
:100250000A1F16371A1904130A153A000300000E74
:1002600011110E000A040A040E04003000040404F4
:100270000010001804031F111F121F101D15171165
:10028000151F07041F17151D1F151D01011F1F1521
:100290001F17151F000A00003200040A110A0A0A7B
:1002A000110A040115020E11171E051E1F150A0E54
:1002B000110A1F110E1F15111F05010E111D1F041C
:1002C0001F111F1108100F1F041B1F10101F061FE6
:1002D0001E040F0E110E1F09060E112E1F051A12F5
:1002E0001509011F011F101F0F180F1F0C1F1B04E2
:1002F0001B031C03191513001F11030418111F0001
:100300000201022020200001020C121E1F120C0C00
:1003100012120C121F0C1A14041E05242A1E1F028E
:100320001C141D1020201D1F0814111F101E041E58
:100330001E021C0C120C3E0A040C123E1E04021477
:10034000160A020F120E101E0E100E1E081E120CA0
:100350001226281E322A26041E21001F00211E04F8
:100360000102013F213F05077F4141417F3E5B4F35
:100370005B3E3E6B4F6B3E183C783C18183C7E3C15
:10038000181C577D571C1C5E7F5E1C007E43437EFD
:10039000007E73737E007E7F7F7E7F4141417F3090
:1003A000483A060E06297929067F4141417F60704F
:1003B0003F02042A1C361C2A7F3E1C080000081C31
:1003C0003E7F14227F22143C3C3C7EFF18423C813D
:1003D0007E3E6375633E3E616B633E3E636B6B3E88
:1003E00004027F020410207F201008082A1C08083D
:1003F0001C2A0808143E554122637569756310185C
:100400001C1810040C1C0C04000000000000005F0D
:1004100000000007000700147F147F14042A7F2ABD
:100420001023130864623649562050000807030061
:10043000001C2241000041221C002A1C3E1C2A08EC
:10044000083E080800E0600000080808080800608E
:1004500060000060100804033E5149453E00427FA1
:10046000400062514949462141494D331814127FD9
:100470001027454545393C4A494930412111090772
:100480003649494936064949291E00002400000022
:100490008064000008142241001414141414004154
:1004A00022140802015909063E415D594E7C121181
:1004B000127C7F494949363E414141227F414122D8
:1004C0001C7F494949417F090909013E4141513297
:1004D0007F0808087F00417F41002041413F017FA4
:1004E000081422417F404040407F020C027F7F027F
:1004F00004087F3E4141413E7F090909063E4161B2
:1005000041BE7F09192946264949493201017F0127
:10051000013F4040403F1F2040201F3F4038403FA8
:1005200063140814630304780403615149454300CC
:100530007F41410003040810600041417F00040234
:10054000010204808080808000030708002054544A
:1005500078407F2844443838444444283844442868
:100560007F3854545418087E09090218A4A49C78B2
:100570007F0804047800447D4000006080847D7F13
:100580001010284400417F40007C047804787C08E7
:100590000404783844444438FC18242418182424CB
:1005A00018FC7C080404080854545420043F4444B4
:1005B000203C4040207C1C2040201C3C4020403CF3
:1005C00044281028444C9090907C4464544C44003F
:1005D0000836410000007F00000041360800180482
:1005E00008100C7F4141417F0A4E6F205344206325
:1005F000617264206F720A6E6F204C4F4144455205
:100600002E4845580A0A153A45786974001D204657
:100610006C617368696E670A20206C6F6164657233
:100620002E2E2E0A0A444F4E2754205455524E2047
:100630004F464621000A0A153A49676E6F726500F7
:100640006D560A0A504C45415345205455524E2090
:100650004F464620004C4F57204241545445525972
:1006600021200017534400161378001613140015A8
:1006700010200015201000540A03E181867F3E18E7
:100680006D830F0F0E0183866033186DC3198F18A9
:1006900003C38E6033186DE330CF1803C39E6036FA
:1006A00030CDE360CF3006C79E7E3E30CDB360CF05
:1006B000300CC6F6603330D9B660CF33CFCCF6609D
:1006C00061B0DB1E60CF30D86CE6C061B0DB1E616C
:1006D0008F19986CC6C063B19B0E330F0FB078C6EC
:1006E000FF7E1F1B061E0F050089300802380249D5
:1006F0007868140000F6E8DBCFC3B8AEA49B928AFA
:10070000827B746E68625C57524E4945413E3A376F
:1007100034312E2C29272523211F1D1C1A191716A9
:100720001514131211100F0E0D0C0B0A09080706F1
:100730004500680100000500380168010000460717
:1007400042070101FF030101F70300000008000256
:100750000100000304070000000000000000010287
:10076000040810204080010204081020010204083F
:10077000102004040404040404040202020202021D
:1007800003030303030300000000230026002900E5
:1007900000000000250028002B00000000002400BD
:1007A00027002A0000407A10F35A00A0724E180960
:1007B0000010A5D4E80000E87648170000E40B54C8
:1007C000020000CA9A3B000000E1F5050000809697
:1007D0009800000040420F000000A08601000000C9
:1007E000102700000000E803000000006400000083
:1007F00000000A00000000000100000000002C764C
:10080000D888DC674F0823DFC1DFAE59E1B1B79666
:10081000E5E3E453C63AE651997696E8E6C28426C3
:10082000EB898C9B62ED407C6FFCEFBC9C9F40F29F
:10083000BAA56FA5F490055A2AF75C936B6CF9671B
:100840006DC11BFCE0E40D47FEF520E6B500D0EDE0
:10085000902E0300943577050080841E0800002048
:100860004E0A000000C80C333333330F986E1283E6
:100870001141EF8D2114893BE65516CFFEE6DB18BA
:10088000D1844B381BF77C1D901DA4BBE42420327F
:1008900084725E228100C9F124ECA1E53D27FB04AE
:1008A0008519230511241FBECFEFD8E0DEBFCDBFD1
:1008B00012E0A0E0B1E0E2E8F3E502C005900D929D
:1008C000AC36B107D9F726E0ACE6B2E001C01D9224
:1008D000A038B207E1F718E0C2EAD8E004C02297D6
:1008E000FE010E94AB24CE39D107C9F70E94AE1D8C
:1008F0000C94B4290C94000082EF92E00E943F20F7
:100900008EEF92E00E943F2085E093E00E943F201E
:100910008BE093E00E943F2081E193E00C943F2024
:10092000DC01ED91FC910190F081E02D0994CF93D1
:10093000DF93EC016D2F70E082EB95E00E94900454
:10094000BE01772782EB95E0DF91CF910C94900464
:10095000CF93DF9360E170E082EB95E00E946D1928
:10096000C0E7D2E0899199910E94970482E0CA374A
:10097000D807C1F782EB95E0DF91CF910C948219F3
:10098000EAE0F1E0ACE6B2E0819191918D939D9324
:1009900081E0E831F807C1F780917002909171020F
:1009A000826090937102809370020E94A8048091EB
:1009B0007002909171028D7F90937102809370020A
:1009C0000895CF93DF93C2E7D2E088819981806157
:1009D00099838883E0E7F2E080819181816091834F
:1009E00080830E94A804888199818F7E998388835F
:1009F000DF91CF91089510926803109267038FE3FF
:100A000092E0909366038093650368E771E081E16B
:100A100093E00E94AD2069EB71E08BE093E00E94CF
:100A2000AD206BEC71E085E093E00E94AD2063EDBA
:100A300071E08EEF92E00E94AD206DE072E082EFF7
:100A400092E00C94AD200C947C04CF93C82F61E10C
:100A500070E082EB95E00E946D196C2F82EB95E0BF
:100A60000E940819EC2FF0E0EE0FFF1FE459FD4F34
:100A7000808191810E94970482EB95E0CF910C9444
:100A80008219E0E7F2E08081918120E4922791834E
:100A9000808382E00C942505803124F08FE08093E0
:100AA0001E01089587FF03C010921E0108958093D0
:100AB0001E01992787FD909520917602309177024B
:100AC000207F822B932B909377028093760285E090
:100AD0000C942505BF92CF92DF92EF92FF920F9375
:100AE0001F93CF93DF93082F61E170E082EB95E0D5
:100AF0000E946D19E091B205F091B3050190F0816B
:100B0000E02D6CE082EB95E0099560E082EB95E0EA
:100B10000E946F1910E0A801440F551F21E030E03A
:100B200061E170E082EB95E00E9461192CEAC22E2F
:100B300022E0D22EC0E0D0E082EB95E0C017D107D2
:100B40008CF40E94B818B82E82EB95E00E94B81879
:100B5000FB2CE12C8E0D9F1DF601819391936F016B
:100B60002196EACFDF91CF911F910F91FF90EF90E7
:100B7000DF90CF90BF900C948219EF92FF920F9369
:100B80001F93CF93DF93CDB7DEB7A2970FB6F8943C
:100B9000DEBF0FBECDBF84E00E946A058091AE0229
:100BA0009091AF0292FB222720F92093FB029C0137
:100BB000F5E036952795FA95E1F72F712093040318
:100BC0009C012227307F2115304259F08091AE02DE
:100BD0009091AF028827987F8115904409F0D2C088
:100BE00048C084FF02C012E401C011E480914301B7
:100BF000181771F061E173E08BE093E00E94C3206D
:100C00006BED71E081E193E00E94E32010934301DA
:100C10000091AE020F70000F000F10E0B80181E1EB
:100C200093E00E94E7212091B102FC012083B801EA
:100C30006F5F7F4F81E193E00E94E7212091B00236
:100C4000FC012083B8016E5F7F4F81E193E00E9439
:100C5000E7212091B302FC012083B8016D5F7F4F33
:100C600081E193E00E94E7212091B202FC01208300
:100C7000ADCFE090B202F090B3020091B0021091BB
:100C8000B1020170112764E0000F111F6A95E1F7AE
:100C9000C701892F992782958F70080F191FC701E7
:100CA0008F73992795958795080F191F083111059E
:100CB0000CF048C0F0ECEF22FFE0FF2256E0F69483
:100CC000E7945A95E1F74AE0B701CE010D960E94EC
:100CD000FB202AE0E216F1042CF449EDE42E41E079
:100CE000F42E04C03CE5E32E32E0F32E4AE0B801D6
:100CF000CE0149960E94FB200A3011051CF469E1DF
:100D000072E002C06CE572E0CE0143960E94AD2015
:100D1000BE01675E7F4FCE0143960E94BA216BE110
:100D200072E00E94CD21B7010E94CD21BE01635F18
:100D30007F4F0E94BA21BC01CE0101960E94DA20A9
:100D400011E007C06DE172E0CE0101960E94AD2076
:100D500010E0BE016F5F7F4F8EEF92E00E94C320D4
:100D6000CE0101960E943F20112361F0CE014396EF
:100D70000E943F20CE0149960E943F20CE010D9651
:100D80000E943F200091AE021091AF02C801882757
:100D9000907F892B09F080C00370000F10E0B8012C
:100DA00085E093E00E94E7212091B302FC012083BB
:100DB000B8016F5F7F4F85E093E00E94E7212091AB
:100DC000B202FC0120838091AE029091AF0284FBBD
:100DD000222720F92093FC0283FB222720F920936D
:100DE000FA0293FD59C09091B0028091B1028F8FA9
:100DF00098A39091B2022091B30229A39AA3805E96
:100E00008A3108F48F8F6CE572E082EF92E00E94E5
:100E1000E3208E01015E1F4F7E01F3E2EF0EF11C15
:100E2000F80161918F018FEF860F8C3C90F570E097
:100E300080E090E00E94FE222DEC3CEC4CEC5DE367
:100E40000E94B22320E030E04FEA52E40E94FB21EE
:100E5000AB01BC0122E0CE0107960E945721BE01E2
:100E6000695F7F4FCE0101960E94DA2069E172E04E
:100E7000CE0101960E94CD21BC0182EF92E00E943A
:100E8000B321CE0101960E943F20CE0107960E9419
:100E90003F200E151F0521F6A2960FB6F894DEBF6F
:100EA0000FBECDBFDF91CF911F910F91FF90EF90BB
:100EB0000895EF92FF920F931F93CF93DF9340E13A
:100EC00050E060E170E082EB95E00E945E19C0E8BE
:100ED000D2E082EB95E00E94B818F82E82EB95E004
:100EE0000E94B8181F2D00E0800F911F89939993DD
:100EF00082E0C039D80769F782EB95E00E94821939
:100F0000C0918002D091810280918302869586955E
:100F10008093EC02E090F102E4E0EE9E7001112477
:100F200087010D5C1E4FBE017370882777FD809589
:100F3000982F0E94FE22F701E55DFD4F208131814F
:100F4000428153810E94B2239B01AC01F801608170
:100F50007181828193810E94FB216093ED027093E5
:100F6000EE028093EF029093F002D2FD03C0109244
:100F7000FD0203C081E08093FD02CC27D079C1152A
:100F8000D04921F481E08093F90202C01092F90265
:100F9000DF91CF911F910F91FF90EF900895AF9245
:100FA000BF92CF92DF92EF92FF920F931F93CF9356
:100FB000DF93CDB7DEB72C970FB6F894DEBF0FBE28
:100FC000CDBF6B017C0180E2809343016BED71E04A
:100FD00081E193E00E94E3206CED71E08BE093E00F
:100FE0000E94E32062E172E085E093E00E94E3204A
:100FF000109204036CE572E082EF92E00E94E3201D
:10100000C092ED02D092EE02E092EF02F092F00276
:1010100021E0B701A601CE0107960E94272120E01A
:1010200030E048EC52E46091ED027091EE02809164
:10103000EF029091F0020E945F2287FF03C069E1F6
:1010400072E002C06CE572E0CE0101960E94AD2014
:10105000BE01695F7F4FCE0101960E94BA2163E213
:1010600072E00E94CD21BC0185E093E00E94C32084
:10107000CE0101960E943F20CE0107960E943F209C
:10108000A090F102B12C8501000F111F000F111F5C
:10109000F801ED5CFE4F2081318142815381C7010F
:1010A000B6010E94FA21F801E55DFD4F20813181F2
:1010B000428153810E9463220E94CB227370B6E06A
:1010C000660F771FBA95E1F7605F7F4F600F711F62
:1010D000F501E95DFD4F8081680F711D87FD7A95EF
:1010E000709373026093720260E170E082EB95E0AE
:1010F0000E946D1980917002909171020E94970474
:1011000080917202909173020E94970482EB95E0A5
:101110000E94821968EC70E080E090E00E940D1C53
:101120000E9459072C960FB6F894DEBF0FBECDBFB4
:10113000DF91CF911F910F91FF90EF90DF90CF90B3
:10114000BF90AF90089582EB95E00E94471987E128
:1011500093E00E9474156FE770E087E193E00E94CE
:10116000F71468EC70E080E090E00E940D1C0E9493
:10117000C00464E670E080E090E00E940D1C0E94D4
:10118000E10468E572E080E090E00E940D1C60914F
:101190001F017091200180912101909122016093A3
:1011A000ED027093EE028093EF029093F0020E94A2
:1011B000CF0781E080932F0380936C030895CF9332
:1011C000DF9387E193E00E94BA12882309F4B3C148
:1011D00044E062E081E293E00E94CF0B882319F0A3
:1011E00081E08093F80244E060E081E293E00E94B5
:1011F000CF0B882319F082E08093F80244E061E08D
:1012000081E293E00E94CF0B882339F080911E0188
:101210008F5F80931E010E944C0544E063E081E2F1
:1012200093E00E94CF0B882339F080911E018150FA
:1012300080931E010E944C0544E066E081E293E049
:101240000E94CF0B882301F166E770E087E193E00D
:101250000E94F7140E94C00468EC70E080E090E007
:101260000E940D1C0E94E10468E572E080E090E0BD
:101270000E940D1C6091ED027091EE028091EF02D0
:101280009091F0020E94CF0744E064E081E293E095
:101290000E94CF0B81111092F80244E065E081E2D8
:1012A00093E00E94CF0B81110E9441058091F802CA
:1012B000882309F47FC0813099F5C091F10284E060
:1012C000C89FE0011124FE01E55DFD4F2AE037EDE6
:1012D00043EA5BE360817181828193810E94FB21FB
:1012E0002091ED023091EE024091EF025091F00218
:1012F0000E94FB216093ED027093EE028093EF0257
:101300009093F002FE01ED5DFE4F2081318142811C
:1013100053810E94AE231816ECF5CD5CDE4F2EC033
:101320008230C1F5C091F10284E0C89FE001112430
:10133000FE01E55DFD4F2081318142815381609145
:10134000ED027091EE028091EF029091F0020E9406
:10135000FA216093ED027093EE028093EF02909376
:10136000F002FE01ED5CFE4F20813181428153810C
:101370000E945F2287FF0EC0CD5DDE4F888199817C
:10138000AA81BB818093ED029093EE02A093EF02BD
:10139000B093F0026091ED027091EE028091EF0245
:1013A0009091F0020E94CF0764E670E080E090E048
:1013B0000E940D1C87E080936E0310926F03409192
:1013C000ED025091EE026091EF027091F00222E086
:1013D00030E085E693E00E94F61F62E770E085E664
:1013E00093E00E94FB1D8091FD02882341F02EEDC9
:1013F00031E040E060E085E693E00E94B10EE091CC
:101400001E01EE0FFF0BEA5AFE4F2081318140E0B2
:101410006DE285E693E00E94B10E8CE380936E034B
:1014200010926F036EEF72E085E693E00E94201E3B
:1014300010926E038FE080936F0366E673E085E69B
:1014400093E00E94E30F65E073E085E693E00E947D
:10145000201E64EE71E085E693E00E94E30F109297
:101460006E038EE180936F036BE073E085E693E09B
:101470000E94201E10926E0386E080936F0380917D
:10148000FA02882319F06FE670E002C06CE670E0A3
:1014900085E693E00E94FB1D8091FC02882331F0D9
:1014A00068E670E085E693E00E94FB1DE09104038E
:1014B000E03184F4EE0FFF0BE857FF4F6591749114
:1014C0008EE993E00E94D0266EE973E085E693E012
:1014D0000E942E1EE091EC02EB3128F42091440191
:1014E000309145010EC0E43228F020915401309132
:1014F000550107C0F0E0EE0FFF1FE25FFE4F2081B5
:10150000318140E066E385E693E00E94B10E0E94DF
:1015100059078091F802882331F08091EC028A31DA
:1015200010F01092F8028091F902882321F0DF91E7
:10153000CF910C94BD05DF91CF910895CF93CFB794
:10154000F8948091AB03811127C0ECE7F7E0849118
:10155000E8E6F7E09491E82FF0E0EE0FFF1FE65683
:10156000F84FA591B4918C91892321F461E08AE030
:101570000E944E1D61E08AE00E94151D8CB58061BD
:101580008CBD8CB580648CBD61E08DE00E94151D22
:1015900061E08BE00E94151D8091AB038F5F80930B
:1015A000AB03CFBFCF91089521E0FC0120830895C4
:1015B00070E085E00C948D1CAF92BF92CF92DF92C9
:1015C000EF92FF920F931F93CF93DF93EC018981EA
:1015D0009A812FE0289F8001299F100D112485E119
:1015E0000E94701C800F911F24E0969587952A9584
:1015F000E1F79A8389832881222391F1AC81AD8020
:10160000B12CC12CD12CE885F9857F0100E010E0D8
:101610006E817F819B0140E050E08617970728F09C
:10162000BC01E817F90708F4BF0180E090E01F92C1
:101630001F921F92AF930E94F81F6B830F900F9021
:101640000F900F9070E085E0DF91CF911F910F9187
:10165000FF90EF90DF90CF90BF90AF900C948D1CD7
:10166000DF91CF911F910F91FF90EF90DF90CF907E
:10167000BF90AF900895FC018CE39FE09383828339
:1016800084E0818381E084870895CF93DF93EC0128
:101690008C819D81892B81F18C858F7151F584E13D
:1016A0000E94701CBC01882777FD8095982F0E94AE
:1016B000FE2226EE3FE34EEC50E40E94B2230E944D
:1016C000D0229B017B836A836115710581F084E0E0
:1016D0008983FE0140E0848195812817390710F441
:1016E00049830AC04F5F32964430A9F702C08FEF9A
:1016F00089838C858F5F8C87DF91CF910895FC0162
:1017000088E0808389E0818387E0828386E0838329
:1017100084E0848382E0858381E186830895DF927B
:10172000EF92FF920F931F93CF93DF937C01EC0115
:1017300000E010E0DD24DA9462E088810E94151D4B
:1017400088810E94841DF701E00FF11F892B21F48D
:1017500087818F5F878308C08781882349F08F3F07
:1017600011F4178201C0D78260E088810E94151DA4
:101770000F5F1F4F219607301105F1F6DF91CF91D2
:101780001F910F91FF90EF90DF900895FC01E60FFD
:10179000F11D81E09781913009F080E00895262FB6
:1017A00030E0FC01E20FF31F8781423028F48150C2
:1017B0008E3F48F080E008958F3FE1F3642F0E9450
:1017C00029249130B9F781E008958EBD00000DB451
:1017D00007FEFDCF8EB50895DC01643508F053C0D7
:1017E000403308F050C090968C919097342F3595E7
:1017F00035953595E62FFF27E7FDF095242F2770C7
:10180000823099F4DF01A455BC4F84E53802A00D65
:10181000B11D11248C9190E0022E02C09595879500
:101820000A94E2F78095817009C0833039F4462725
:101830001C968C91482740FF03C014C0811112C030
:1018400084E53802E00DF11D1124E455FC4F81E0E0
:1018500090E0022E01C0880F0A94EAF780959081EB
:10186000982310C084E53802E00DF11D1124E455E1
:10187000FC4F81E090E0022E01C0880F0A94EAF745
:101880009081982B908308951F93CF93DF93EC0161
:10189000162FF89460E08F850E944E1D88891816D7
:1018A0001CF460E00E944E1D812F0E94E50B888988
:1018B00018161CF461E00E944E1D7894DF91CF91C0
:1018C0001F91089528EF31E0ECEAF3E0DF01A90170
:1018D0001D9241505040E1F7DC0119961C92199776
:1018E0001A961C920895DF92EF92FF920F931F9326
:1018F000CF93DF93EC018C858F5F8C878CEAE82E89
:1019000083E0F82ED12C6D2D6064CE010E94440C32
:1019100060E8CE010E94440C61E08F850E944E1D5C
:10192000888918161CF460E00E944E1D00E010E04B
:10193000F701E00FF11F80810E94E50B0F5F1F4F41
:1019400004351105A9F7888918161CF461E00E9476
:101950004E1DD39484E5E80EF11C86E0D812D3CF57
:1019600060E4CE01DF91CF911F910F91FF90EF9036
:10197000DF900C94440CFC0160A361A30895FC016A
:1019800060A341A30895CF92DF92FF920F931F931C
:10199000CF93DF931F92CDB7DEB76C01062FF42EE5
:1019A00010E0121754F4412F4F0D602FC601298308
:1019B0000E94EC0B1F5F2981F4CF0F90DF91CF9134
:1019C0001F910F91FF90DF90CF900895CF92DF92FB
:1019D000FF920F931F93CF93DF931F92CDB7DEB784
:1019E0006C01062FF42E10E0121754F4612F600FD3
:1019F0004F2DC60129830E94EC0B1F5F2981F4CF74
:101A00000F90DF91CF911F910F91FF90DF90CF90BA
:101A10000895DF92EF92FF920F931F93CF93DF937E
:101A2000EC01E62ED22EF42E112707FD1095040F9F
:101A3000111D47FD1A958F2D992787FD90958017C9
:101A4000910744F42D2D4F2D6E2DCE010E94E60CF2
:101A5000F394F1CFDF91CF911F910F91FF90EF9011
:101A6000DF9008958F929F92AF92BF92CF92DF92B4
:101A7000EF92FF920F931F93CF93DF93EC01E62E2B
:101A8000D42E122FCC24C394C21AB22EB194BB0C04
:101A9000F12C802F8470A82E802F8270982E802F9A
:101AA0008870882E0170F1160CF04DC0C7FC04C080
:101AB0001150B394B394CB0CF3948F2D880F8F5F98
:101AC000C80EAA2071F0412F4D0D6F2D6E0DCE0165
:101AD0000E94EC0B4F2D4D0D612F6E0DCE010E941B
:101AE000EC0B992071F04D2D411B6F2D6E0DCE0129
:101AF0000E94EC0B4D2D4F19612F6E0DCE010E94EF
:101B0000EC0B882071F04F2D4D0D6E2D611BCE0119
:101B10000E94EC0B412F4D0D6E2D6F19CE010E94CE
:101B2000EC0B002309F4BFCF4D2D4F196E2D611B17
:101B3000CE010E94EC0B4D2D411B6E2D6F19CE0175
:101B40000E94EC0BB0CFDF91CF911F910F91FF90CE
:101B5000EF90DF90CF90BF90AF909F908F900895BF
:101B60008F929F92AF92BF92CF92DF92EF92FF92AD
:101B70000F931F93CF93DF93EC01B62EA42E122F59
:101B8000DD24D394D21AC22EC194CC0CFF24F3943A
:101B9000802F8170882E992493949E0C02708FEF71
:101BA0008F0D8117C4F5D7FC04C01150C394C394A2
:101BB000DC0C8F2D880F8F5FD80E882099F0212F95
:101BC000220F290D4A2D411B6F2D6B0DCE010E9456
:101BD000C30C23E02E0D4A2D4F19612F6B0DCE0142
:101BE0000E94C30C002399F0212F220F290D4A2DAA
:101BF000411B6B2D6F19CE010E94C30C23E02E0DEB
:101C00004A2D4F196B2D611BCE010E94C30CF3941A
:101C1000E394E394C4CFDF91CF911F910F91FF9094
:101C2000EF90DF90CF90BF90AF909F908F900895EE
:101C30009F92AF92BF92CF92DF92EF92FF920F935B
:101C40001F93CF93DF93EC01B62EF42EA22EDE2C41
:101C5000D194DD0C9D2C920E1E2D160F292D612F77
:101C60000E94E60CCC24CA94C00ECF0C292D4C2D1A
:101C7000612FCE010E94E60CD00EFE0C2D2D4F2DB3
:101C80006B2DCE010E94C30CBA0C6FEF6B0D2D2D86
:101C90004F2DCE010E94C30C01E02E2D4F2D612F40
:101CA000CE010E94320DDE2CD094DB0C02E02E2DF2
:101CB0004F2D6D2DCE010E94320DCE1804E02E2D39
:101CC0004C2D6D2DCE010E94320D08E02E2D4C2D95
:101CD000612FCE010E94320DDF91CF911F910F91A4
:101CE000FF90EF90DF90CF90BF90AF909F900895BE
:101CF000AF92BF92CF92DF92EF92FF920F931F931A
:101D0000CF93DF93EC01A62EC42EB22EF02E1E2D03
:101D1000E194EE0CD12ED60E2E2D2B0D6D2D0E94A2
:101D2000090DFA94FE0CC10E6FEF6A0D6B0D611B6D
:101D3000EF2C01E0212F4C2DCE010E94B00D02E0CE
:101D4000212F4C2D6D2DCE010E94B00DDF91CF9132
:101D50001F910F91FF90EF90DF90CF90BF90AF90C9
:101D600008956F927F928F929F92AF92BF92CF927F
:101D7000DF92EF92FF920F931F93CF93DF93F901BE
:101D8000A49031965491FC01F0A064350CF00CC184
:101D9000BB24A7FCB094A62FBB27A7FDB095FD01DF
:101DA000EA0DFB1D1E161F060CF0FEC040330CF0A2
:101DB000FBC0C52E042F112707FD1095E801C50FA4
:101DC000D11D57FDDA951C161D060CF0EDC0E9017A
:101DD00022969501295F3F4F37FF02C0295F3F4F91
:101DE00073E0359527957A95E1F747FF0AC0C52E30
:101DF000C40E209FA001219F500D1124C41BD50BA0
:101E000040E00C2D112707FD1095040F111D47FD13
:101E10001A95013311051CF070E3C72EC41A67FD33
:101E200060E0E535F10514F0E4E5F0E01E2FFC017B
:101E300074857427862F992787FD9095FC01EA1BEE
:101E4000FB0BDF015F01F7E0AF22BB24E0E8F0E02D
:101E500002C0F595E795AA94E2F70E2FB7FD179605
:101E600053E0B595A7955A95E1F7AC0FBD1FE42F48
:101E7000E77051E001C0550FEA95EAF745954595A1
:101E80004595E4E54E02800D911D112484559C4F2B
:101E900040E0DD24C7FCD094BB24B3943327E42F67
:101EA000F0E0EC15FD050CF07FC0FD01E490F1E0E1
:101EB000FF1219C0EC01A02EFD01862E881A9C2E5F
:101EC000980C911608F067C09E2C9A2019F0988003
:101ED000952A9882A69429F43196E4906894AA24CD
:101EE000A7F82196ECCFF1101BC0752E7094EC0171
:101EF000A02EFD01862E881A9C2E980C911608F0B3
:101F00004AC09E2C9A2019F0988097209882A69417
:101F100029F43196E4906894AA24A7F82196ECCF8E
:101F2000E3E0FE1631F0EC01A02EFD01862E881AAA
:101F30002EC0752E7094962EEC01A02EFD019116E8
:101F4000B0F48E2C8A2049F08880692C672660FEC8
:101F500002C0852A01C087208882A69429F4319680
:101F6000E4906894AA24A7F893942196E8CF7B255F
:101F700012C09E2C9A2019F0988095269882A694DB
:101F800029F43196E4906894AA24A7F821969C2E0F
:101F9000980C911670F3550F19F48C5A9F4F51E01D
:101FA0004F5FA20FB31F7BCFDF91CF911F910F9196
:101FB000FF90EF90DF90CF90BF90AF909F908F9069
:101FC0007F906F900895DC01FB0184918F5F1496E0
:101FD0008C9314973196E491EF5F1596EC931597D7
:101FE0006E5F7F4F5F967C936E935E970895EF923E
:101FF0000F93CF93DF93EC014E876D872F87E98A8C
:10200000088B81E0888788A319A28F8364EE71E032
:10201000CE010E94E30F0E949E0A8CB58F7D8CBD7D
:102020008CB58C7F81608CBD8DB581608DBD8CB58C
:102030008C608CBD61E08E850E94151D61E08D85F0
:102040000E94151D61E08F850E94151D8989181653
:102050001CF461E00E94151D888918161CF461E0CB
:102060000E94151D898918166CF460E00E944E1DAF
:102070006AE070E080E090E00E940D1C61E08989D8
:102080000E944E1D8D85992787FD9095FC01EE5885
:10209000F84FE491F0E0EE0FFF1FE057F84F259165
:1020A00034913D8B2C8BFC01E25AF84F84918B8F3D
:1020B0008E85992787FD9095FC01EE58F84FE491A5
:1020C000F0E0EE0FFF1FE057F84F259134913B8B66
:1020D0002A8BFC01E25AF84F84918A8F88899927CC
:1020E00087FD9095FC01EE58F84FE491F0E0EE0F7B
:1020F000FF1FE057F84F259134913F8B2E8BFC0149
:10210000E25AF84F84918C8F8F85992787FD90959F
:10211000FC01EE58F84FE491F0E0EE0FFF1FE0579E
:10212000F84F25913491398F288FFC01E25AF84FEE
:1021300084918D8F61E2CE010E94440C64E1CE0156
:102140000E94440C8B8587FF02C08FE78B876B85CD
:102150006068CE010E94440C60E2CE010E94440CF3
:102160006CE0CE010E94440CCE01DF91CF910F9123
:10217000EF900C94730C6F927F928F929F92AF921C
:10218000BF92CF92DF92EF92FF920F931F93CF9364
:10219000DF93EC01162FF42EB02EE8A064350CF07E
:1021A00081C08FE284170CF47DC0EC81F0E03197A0
:1021B0000E9FC0010F9F900D1124860F911D67FD8A
:1021C0009A95181619060CF06DC08D81809FC0017C
:1021D0001124840F911D47FD9A95181619060CF0CD
:1021E00061C0A62E962EC22ED12C8A2D811B992736
:1021F00087FD90952C8130E0821793070CF051C039
:10220000215031098217930779F0C29ED001C39EF5
:10221000B00DD29EB00D1124A80FB91FEE8DFF8D09
:10222000EA0FFB1F749001C0712C8F2C6F2C282D8E
:102230002F19332727FD30958D8190E02817390716
:102240006CF570FE11C081E0B81206C0482D6A2DF1
:10225000CE010E94EC0B1EC00B2D2B2D462D692D9F
:10226000CE010E94090D16C089A198A1891791F08D
:1022700088A381E0B81206C0482D6A2DCE010E94C5
:10228000EC0B07C00B2D2B2D462D692DCE010E9486
:10229000090DE8A276946B0C8394C9CF9B0CA39490
:1022A000A4CFE8A2DF91CF911F910F91FF90EF9003
:1022B000DF90CF90BF90AF909F908F907F906F9066
:1022C00008950F93CF93DF93EC01262F6A3039F4F2
:1022D0002D8198858A85299F800D112422C06D301B
:1022E00011F108854A8569850E94BB1048855C818B
:1022F0002985549F200D112429878F81882399F0E7
:10230000332727FD309584E590E0459F801991099A
:102310001124821793073CF49D818A85499F800D83
:1023200011248A87198681E090E0DF91CF910F9187
:1023300008958F929F92AF92BF92CF92DF92EF92C9
:10234000FF920F931F93CF93DF93EC015C0186E81C
:10235000A80EB11CD5018C91882309F44DC08C3096
:1023600018F41CE0181B01C010E0FE01EA5AFF4FF0
:1023700081E080836E01BEE4CB0ED11C60E0C6011B
:102380000E94BB0C4E01E3E58E0E911CD4018C9192
:1023900003E0080F9DE2F92E4F2D481B410F23E06B
:1023A000E22E24E560E0C6010E94780E61E0C601DD
:1023B0000E94BB0CF401808103E0080F4F2D481BE5
:1023C000410F24E560E0C6010E94180EFE01E95AA3
:1023D000FF4F84E080833196D4018C91181B115DEE
:1023E0001083CC57DF4F68817981C6010E94FB1DA5
:1023F000F501808181508083DF91CF911F910F91F2
:10240000FF90EF90DF90CF90BF90AF909F908F9014
:102410000895DF92EF92FF920F931F93CF93DF9374
:10242000EC018C8D9D8D892B09F49CC08E01025B83
:102430001F4F40E061E0C8010E94BF0C85E5FE012E
:10244000EE5AFF4F9081891B35968083319610821A
:10245000698D613009F462C028F0888D653008F01C
:1024600074C06FC0CE0185960E94F91681E0FE010E
:10247000EA5AFF4F808364EE71E0C8010E94E30FC7
:102480001D8E1C8EFE01EC5AFF4F108238EAD32EAF
:102490007E018AE0E80EF11CCE010E94BA12882368
:1024A000D9F365E576E0C8010E94FB1D6A8D7B8D3E
:1024B0004AE050E0C8010E94051F60E476E0C801D0
:1024C0000E94FB1D6D2D62956F7070E04AE050E038
:1024D000C8010E94F01E65E376E0C8010E94FB1D62
:1024E00064E0C7010E94C60B81113CC0DA94A1F6DA
:1024F00060E0CE010E94D80A83B7817F846083BFE9
:1025000083B7816083BF83B7816083BF889583B7BA
:102510008E7F83BF83B78E7F83BFBECFCF58DF4F01
:10252000488159816A817B814F70552766277727BB
:10253000483051056105710510F467E009C068E78E
:1025400007C0882379F06B5F03C0882359F06FE2DE
:10255000C801DF91CF911F910F91FF90EF90DF9015
:102560000C94301EDF91CF911F910F91FF90EF904F
:10257000DF9008958F929F92AF92BF92EF92FF9259
:102580000F931F93CF93DF93EC017C0100E8E00EE3
:10259000F11CF70180809180A280B3800E94DE1B35
:1025A00095018401061B170B280B390BB901A801F3
:1025B0005E011FE7A10EB11CF501808190E0A0E053
:1025C000B0E08E0105581F4F84179507A607B7077F
:1025D00050F4F80180819181A281B381892B8A2BEB
:1025E0008B2B09F040C0F80180819181A281B381D9
:1025F000892B8A2B8B2BA9F57E01F5E2EF0EF11CBE
:10260000C7010E94F616C7010E946317C7010E9406
:102610002718CE010E949911CE010E9409127E0155
:102620002EE4E20EF11CC7010E94730CFE01EC5A6D
:10263000FF4F8081811103C0C7010E94620C0E947C
:10264000EA1BF8016083718382839383FE01EB5858
:10265000FF4FC958DF4F28813981621B730B71838B
:10266000608380E036C00E94DE1BF5012081620F8E
:10267000711D811D911DF701608371838283938396
:10268000FE01EF58FF4F40815181628173814F5F9E
:102690005F4F6F4F7F4F4083518362837383F80195
:1026A00010821182128213820E94EA1BFE01E958F5
:1026B000FF4F6083718382839383CE010E94DC0A83
:1026C000CE010A960E948F0BCE0148960E94450BC0
:1026D00081E0DF91CF911F910F91FF90EF90BF901C
:1026E000AF909F908F9008950F931F93CF93DF9398
:1026F0008C01EC01C25BDF4FCE010E94620C6DE0E9
:1027000076E0CE010E94FB1DCE010E94730C8CB5B9
:1027100083608CBD8DB58E7F8DBD83E492E0EEEF3E
:10272000FFE30995F801EC5AFF4F108268EE75E05F
:10273000CE010E943B1ECE010E94730C065F1F4F0C
:10274000C8010E948F0B64E0C8010E94C60B811172
:1027500007C062E370E080E090E00E940D1CF0CFC3
:10276000DF91CF911F910F9108952F923F924F9239
:102770005F926F927F928F929F92AF92BF92CF9211
:10278000DF92EF92FF920F931F93CF93DF93CDB71A
:10279000DEB729970FB6F894DEBF0FBECDBF99877D
:1027A00088871B012A013C0180E7680E711CF30138
:1027B0008081882309F402C181E0E885F985EA5A1D
:1027C000FF4F8083E885F985EB5AFF4F1082E8853B
:1027D000F985EC5AFF4F1082E885F985108E8F013C
:1027E000025B1F4F61E0C8010E94BB0C8885998580
:1027F0008D5A9F4F9C838B83C884D98497E5C90EDB
:10280000D11CE884F984E8E5EE0EF11C88859985F1
:102810008E5A9F4F9A838983E885F985EF58FF4F39
:10282000FE83ED8388849984FAE08F0E911CA8843E
:10283000B98485E2A80EB11C888599850E94BA12D8
:102840008823D1F3F1018491882321F0EB81FC816D
:10285000508101C050E027E736E040E060E0C80169
:102860005F830E94B10E5F814114510439F04CE046
:10287000450F920160E0C8010E94B10EF60110827E
:102880008CE0F7018083B101C8010E94FB1DE98142
:10289000FA819081892F880F890F81958D5AF601D1
:1028A0008083EB81FC819081892F880F890F81952E
:1028B000835DF7018083ED81FE81808184FF03C009
:1028C00063E776E002C06FE676E0C8010E943B1E37
:1028D000E981FA819081892F880F890F81958D5A1E
:1028E000F6018083F70180818F5F8083E885F98519
:1028F00082A5882319F06BE676E002C067E676E0F1
:10290000C8010E943B1EE981FA819081892F880FBE
:10291000890F81958D5AF6018083F70180818F5F41
:10292000808363E676E0C8010E943B1E65E0C40137
:102930000E94C60B882351F0E885F98562A56F5F78
:10294000C5010E94A318C5010E948D1864E0C4014E
:102950000E94C60B811113C0F3012081822F90E0E9
:10296000A0E0B0E0ED81FE81408151816281738100
:10297000481759076A077B07A8F02F3F99F08FEF98
:10298000F3018083088519850B5D1F4F60E0C80146
:102990000E94A016C8010E94771881E0E885F98599
:1029A000808F0CC066E0C4010E94C60B882309F426
:1029B00043CF888599850E94741334CF29960FB62A
:1029C000F894DEBF0FBECDBFDF91CF911F910F9165
:1029D000FF90EF90DF90CF90BF90AF909F908F903F
:1029E0007F906F905F904F903F902F90089540E0C0
:1029F00050E00C94B513E0E8F7E72591349181E0BD
:102A00002130304C09F080E00895CF93DF93EC0142
:102A10000E94FB149E01275A3F4FDE01A059BF4F71
:102A2000882309F43CC0E6E9F7E78491F901808343
:102A3000E7E9F7E7E491EC83E8E9F7E7E491ED8370
:102A4000E9E9F7E7859194919F838E83EBE9F7E7B6
:102A50008591949199878887EDE9F7E7E491EBA751
:102A6000EEE9F7E7E491EAA7EFE9F7E7E491EC9301
:102A7000E0EAF7E7859194919D8F8C8FE2EAF7E782
:102A8000859194919F8F8E8FE4EAF7E785919491D9
:102A900099A388A3E6EAF7E78591949120C08CE397
:102AA000F90180831C822FEF2D8380E293E09F83C6
:102AB0008E8384ED93E09987888781E08BA78AA72E
:102AC0002C938CEA9DE09D8F8C8F8EED9DE09F8FE7
:102AD0008E8F84E79EE099A388A38CE39FE09BA35D
:102AE0008AA3DF91CF910895CF92DF92EF920F9357
:102AF000CF93DF93EC01FC01E158FF4F82E3808329
:102B0000349741E050E060E070E04083518362839D
:102B100073833B978FEF8083CE010E940515CE0112
:102B20000E94D40A6FEFCE010E94D80A6E018AE09B
:102B3000C80ED11CC6010E947F0BC6010E948F0BDC
:102B4000CE0148960E943B0B3EE0E32E0FE020E1D1
:102B50004BE06DE0CE01825B9F4F0E94F70FA59680
:102B6000CE010E940C1665E0C6010E94C60B8823A8
:102B700051F060E0CE01DF91CF910F91EF90DF90A7
:102B8000CF900C94A31840E067EE76E0CE01DF9181
:102B9000CF910F91EF90DF90CF900C94AB16CF9325
:102BA000DF9350E0FA01EE0FFF1FE80FF91F3785A2
:102BB0002089E32FF22FE60FF11DE60FF11D25917D
:102BC0003491FA01EE0FFF1FE80FF91F30A3278F92
:102BD000F90165917491FC01D481D69FC02D112417
:102BE000E40FF51FC1A3F901A591B4916B2F70E01B
:102BF000EC2FF0E0DC01A40FB51F6E177F0720F467
:102C0000F90125913491C32FCD9FC02D11249296A7
:102C1000CC93DF91CF91089521E0FC01248324E03F
:102C200020A72EE337E0308B278740E060E00E944A
:102C3000CF1561E070E083E00E948D1CE1EBF0E0D5
:102C40008081887F81608083F89410928000E1E821
:102C5000F0E01082109285001092840088E191E0EB
:102C60009093890080938800808188608083808130
:102C700081608083EFE6F0E08081826080837894D9
:102C800008950F93FC01862F642F011129C0823013
:102C9000D1F048F4882391F0813011F540E0CF0164
:102CA0000F910C94CF158330A9F08430C9F484813E
:102CB000489F602D1124658F268F12C04B3008F07D
:102CC0006AE0668B0DC08481489F602D1124618F5E
:102CD000228F06C08481489F602D1124638F248F2A
:102CE0000F910895FC0121110EC0648B8481489FCF
:102CF000402D1124458B15A214A213A281E0878BCD
:102D00008093B005108E08958091B005882319F046
:102D10008091AD0501C080E08093B4000895FC016E
:102D200061110DC0178A158A14A213A2108E109279
:102D3000AD051092AE051092B0050C94841608955E
:102D4000CF93DF93EC01611103C00E948F161982AB
:102D5000DF91CF9108950F931F93CF93DF93EC01F1
:102D60008B0141110EC060E00E94A0161E870D87E6
:102D70001B8A1A8A81E0898389E08E8B198E1B8ECB
:102D80001D8EDF91CF911F910F910895CF93DF9307
:102D9000EC01611128C08881882329F18981811182
:102DA00022C089852F819885E22FF92FE80FF11D28
:102DB000E80FF11D859194918F3F2FEF920711F449
:102DC000188211C09C879927880F991FEA85FB8577
:102DD000E80FF91F6591749140E0CE010E94AB1697
:102DE00089858F5F8987DF91CF91089560E00C948A
:102DF000C61660E00C94A0160F93CF93DF93EC01FE
:102E000061115DC08981882309F459C08D898111C0
:102E100056C02D853E858A899B89880F991F820F10
:102E2000931FFC01859194910097D1F4898988239F
:102E300021F01B8A1A8AF90111C01982888160E089
:102E4000882331F0CE010E94C6168A899B8925C04D
:102E5000CE01DF91CF910F910C948F1685919491B3
:102E6000BC01769567957695679580FF1DC0AC018E
:102E7000A6E056954795AA95E1F7292F2695269520
:102E8000269520514F716F7000E0CE010E944116CF
:102E90008A899B8901969B8B8A8B880F991FED8568
:102EA000FE85E80FF91FDACF492F6F7320E0CE01BE
:102EB0000E9472168A899B8901969B8B8A8BDF916F
:102EC000CF910F91089560E00C94FC16CF93DF939F
:102ED000EC016111B9C08F89882309F4B5C08D89CF
:102EE000811105C0CE01DF91CF910C948F168150D6
:102EF0008D8B8DA1811138C08BA19CA101969C0165
:102F0000220F331FEF8DF8A1E20FF31F25913491AB
:102F1000422F47704EA3A90163E0569547956A95E5
:102F2000E1F7BA0176956795232F269526952FA36D
:102F30006F732C81629F602D11246DA341704093AB
:102F4000AC059CA38BA329A130E08217930760F006
:102F50008AA1882329F0281B31093CA32BA304C094
:102F600060E0CE010E948F168DA181508DA3288D27
:102F70002F5F288F4C893FA1340F8C85380F3A83FF
:102F80006B8D662361F070E0822F992787FD909505
:102F90000E9449248C8D869F300D11243A838A81AA
:102FA00090E0CB966BE370E00E9449248A833E89CF
:102FB0003B83698D662371F0772767FD7095822FBB
:102FC000992787FD90950E9449248A8D869F300D10
:102FD00011243B836D8D662391F0822F992787FD05
:102FE000909570E00E944924CB0162E070E00E945D
:102FF00049242E8D9B81289F900D11249B838B81CA
:103000004F3339F08A300CF089E087FD80E08B8304
:1030100001C01B82F894EA81F0E0EB50F94FE49193
:10302000E093AF0598A58D81989F802D11249B81F9
:10303000899F802D11249EA1899F802D112480932A
:10304000AE058093AD057894DF91CF91089560E04F
:103050000C9466176091AE05662321F18091B1054D
:103060008F5F8093B1059091AF058917D8F080915B
:10307000B00591E089278093B0051092B105809149
:10308000AC05882369F09091760183E4989F802DA8
:103090001124895B809376010E9429249093AD05C9
:1030A0000C94841608951F920F920FB60F9211245C
:1030B0002F933F934F935F936F937F938F939F9340
:1030C000AF93BF93EF93FF930E942A18FF91EF9164
:1030D000BF91AF919F918F917F916F915F914F9130
:1030E0003F912F910F900FBE0F901F901895CF9387
:1030F000DF93EC0160E00E94A01686E397E09E87D4
:103100008D871B8A1A8A81E0898389E08E8B198ECC
:103110001B8E1D8EDF91CF910895CF93DF93EC012D
:1031200060E00E94A01680E397E09E878D871B8A4F
:103130001A8A81E0898389E08E8B198E1B8E1D8E01
:10314000DF91CF910895FC01862F992787FD9095F7
:10315000668170E06F5F7F4F0E94492485830895E8
:103160008091E20590E02091E305821B910908958A
:103170002091E3058091E205281750F4E22FF0E05A
:10318000EC51FA4F808190E02F5F2093E305089582
:103190008FEF9FEF0895E091E3058091E205E81736
:1031A00030F4F0E0EC51FA4F808190E008958FEF19
:1031B0009FEF08950895CF92DF92EF92FF920F93C1
:1031C0001F93CF93DF937C01CB018A012091BE0531
:1031D000222389F0EB016B01C40ED51ECC15DD0551
:1031E00069F06991D701ED91FC910190F081E02D9A
:1031F000C7010995F3CF642F0E943E1AC801DF91E1
:10320000CF911F910F91FF90EF90DF90CF90089595
:10321000CF93DF931F92CDB7DEB769832091BE05B0
:103220002223D1F02091BF05203240F021E030E090
:10323000FC013383228380E090E015C08091C005BB
:10324000E82FF0E0EF53FA4F998190838F5F8093DE
:10325000C0058093BF0505C061E0CE0101960E94C4
:103260003E1A81E090E00F90DF91CF910895FC012C
:103270001382128248EE53E060E070E0448355838D
:10328000668377838EE492E0918380830895109221
:10329000E3051092E2051092C0051092BF050C9450
:1032A0008919862F413208F040E264EE75E00E94F1
:1032B000A7191092E3058093E205089521E00C948C
:1032C00051190C94511981E08093BE056093E1057A
:1032D0001092C0051092BF0508950C9463190F93C6
:1032E000062F21E04091BF0561EC75E08091E1057A
:1032F0000E94EB191092C0051092BF051092BE05F6
:103300000F91089561E00C946F1982EB95E00C9495
:1033100037191092710681E080936F0610926E0645
:1033200061E082E10E944E1D61E083E10E944E1D3A
:10333000E9EBF0E080818E7F808380818D7F8083C8
:1033400088E48093B80085E48093BC0008954132FE
:1033500008F03FC0909171069111FCCF91E09093DD
:10336000710620936F062FEF2093040610924906F2
:10337000240F209348069093700690917006880F52
:10338000892B8093700680916E06813041F41092F3
:103390006E06809170068093BB0085EC01C085EEBF
:1033A0008093BC00809171068130E1F380914906E1
:1033B000841710F4409149062AE436E0FB01D90154
:1033C0008A2F821B841718F48D918193F9CF842F53
:1033D000089580E008950F93413208F046C090911F
:1033E00071069111FCCF92E09093710600936F06E5
:1033F0009FEF909304061092490640934806FB0104
:103400006AE476E0DB019A2F961B941718F49191E9
:103410009D93F9CF1092700690917006880F892BBA
:103420008093700680916E06813041F410926E0692
:10343000809170068093BB0085EC01C085EE80937F
:10344000BC00222321F0809171068230E1F380914B
:1034500004068F3F61F080910406803251F0809124
:103460000406803341F483E007C081E005C080E0BA
:1034700003C082E001C084E00F910895613298F4A6
:1034800020917106243089F460932606FC0188E2BD
:1034900096E0DC012A2F281B261718F421912D9382
:1034A000F9CF80E0089581E0089582E0089585EDE8
:1034B0008093BC008091BC0084FDFCCF109271060B
:1034C000089585EC8093BC001092710608951F92B8
:1034D0000F920FB60F9211242F933F934F935F9348
:1034E0006F937F938F939F93AF93BF93EF93FF93CC
:1034F0008091B900887F803609F49CC068F58832D5
:1035000009F45BC090F4803109F454C038F4882386
:1035100009F4F5C0883009F44DC0F5C0883109F4CC
:103520004CC0803209F45DC0EEC0803409F468C03C
:1035300048F4803309F455C0883309F0E4C080931F
:103540000406A8C0803509F44FC0883509F45DC071
:10355000883409F0D8C0D5C0883909F4C6C0A8F4A9
:10356000883709F467C038F4883609F463C08037B7
:1035700009F460C0C8C0883809F4B7C0803909F4BC
:103580005FC0803809F0BFC05BC0803B09F485C0D4
:1035900038F4803A09F466C0883A09F47EC0B3C0B2
:1035A000803C09F4A6C0883C09F4A3C0883B09F418
:1035B00089C0A9C08091700610C090914906809181
:1035C0004806981770F5E091490681E08E0F8093C8
:1035D0004906F0E0E65BF94F80818093BB0085EC03
:1035E00085C0809304068DC0E091490681E08E0F6E
:1035F000809349068091BB00F0E0E65BF94F808341
:1036000090914906809148066DC0E091490681E09D
:103610008E0F809349068091BB00F0E0E65BF94F86
:10362000808380916F0681116CC081E080936E066B
:1036300084EA60C083E08093710610920506CFCFC4
:1036400080910506803208F050C0E091050681E0C7
:103650008E0F809305068091BB00F0E0EA5FF94F82
:103660008083BDCF80910506803230F4E09105065D
:10367000F0E0EA5FF94F10820E94571A6091050648
:1036800070E0E0916A06F0916B0686E096E009959D
:10369000109205060E94611A36C084E0809371067C
:1036A0001092270610922606E0916C06F0916D06A6
:1036B000099580912606811105C081E08093260638
:1036C00010922806E091270681E08E0F809327064E
:1036D000F0E0E85DF94F80818093BB009091270670
:1036E00080912606981708F47ACF85E88093BC006D
:1036F0000AC085EC8093BC001092710604C0109241
:1037000004060E94571AFF91EF91BF91AF919F91CC
:103710008F917F916F915F914F913F912F910F907A
:103720000FBE0F901F9018951F920F920FB60F9219
:1037300011242F933F938F939F93AF93BF938091C7
:10374000730690917406A0917506B091760630913B
:10375000720623E0230F2D3720F40196A11DB11D21
:1037600005C026E8230F0296A11DB11D2093720605
:103770008093730690937406A0937506B0937606B3
:103780008091770690917806A0917906B0917A069B
:103790000196A11DB11D8093770690937806A093A2
:1037A0007906B0937A06BF91AF919F918F913F9127
:1037B0002F910F900FBE0F901F9018952FB7F89470
:1037C00060917306709174068091750690917606EB
:1037D0002FBF08953FB7F8948091770690917806AF
:1037E000A0917906B0917A0626B5A89B05C02F3F17
:1037F00019F00196A11DB11D3FBF6627782F892FB3
:103800009A2F620F711D811D911D42E0660F771F77
:10381000881F991F4A95D1F70895CF92DF92EF92B2
:10382000FF92CF93DF936B017C010E94EA1BEB01B7
:10383000C114D104E104F10489F00E94F9210E942D
:10384000EA1B6C1B7D0B683E734090F381E0C81A45
:10385000D108E108F108C851DC4FEACFDF91CF91E0
:10386000FF90EF90DF90CF900895789484B58260B8
:1038700084BD84B5816084BD85B5826085BD85B514
:10388000816085BDEEE6F0E0808181608083E1E8C3
:10389000F0E01082808182608083808181608083FB
:1038A000E0E8F0E0808181608083E1EBF0E08081FE
:1038B00084608083E0EBF0E0808181608083EAE7D0
:1038C000F0E0808184608083808182608083808159
:1038D000816080838081806880831092C100089518
:1038E0008E3008F08E5087702091770190E4299FE8
:1038F00090011124822B80937C0080917A00806457
:1039000080937A0080917A0086FDFCCF80917800C8
:103910002091790090E0922B08951F93CF93DF932D
:10392000182FEB0161E00E94151D209711F460E053
:1039300004C0CF3FD10539F461E0812FDF91CF91F1
:103940001F910C944E1DE12FF0E0E65BF84FE491DF
:10395000E330F9F048F4E130B9F0E230A1F584B594
:10396000806284BDC8BD34C0E730E9F0E83019F1A9
:10397000E43049F580918000806280938000D0938C
:103980008B00C0938A0024C084B5806884BDC7BD05
:103990001FC080918000806880938000D093890050
:1039A000C093880015C08091B00080688093B000FB
:1039B000C093B3000DC08091B00080628093B000CE
:1039C000C093B40005C0C038D1050CF0B5CFAFCF5F
:1039D000DF91CF911F910895833081F028F48130D9
:1039E00099F08230A1F008958730A9F08830B9F0BD
:1039F0008430D1F4809180008F7D03C0809180005D
:103A00008F7780938000089584B58F7702C084B546
:103A10008F7D84BD08958091B0008F7703C0809121
:103A2000B0008F7D8093B0000895CF93DF9390E036
:103A3000FC01E25AF84F2491FC01EE58F84F8491B2
:103A4000882349F190E0880F991FFC01E656F84F52
:103A5000A591B4918057984FFC01C591D4919FB71F
:103A6000611108C0F8948C91209582238C938881F1
:103A700082230AC0623051F4F8948C91322F309531
:103A800083238C938881822B888304C0F8948C9143
:103A9000822B8C939FBFDF91CF9108950F931F933B
:103AA000CF93DF931F92CDB7DEB7282F30E0F90117
:103AB000E65BF84F8491F901E25AF84F1491F9014D
:103AC000EE58F84F04910023C9F0882321F0698350
:103AD0000E94EC1C6981E02FF0E0EE0FFF1FE05721
:103AE000F84FA591B4919FB7F8948C91611103C0E0
:103AF0001095812301C0812B8C939FBF0F90DF9184
:103B0000CF911F910F910895CF93DF93282F30E02D
:103B1000F901E65BF84F8491F901E25AF84FD4912C
:103B2000F901EE58F84FC491CC2391F081110E9415
:103B3000EC1CEC2FF0E0EE0FFF1FEA57F84FA591B9
:103B4000B4912C912D2381E090E021F480E002C01B
:103B500080E090E0DF91CF91089508950E94351C98
:103B60000E94AD1D0E94A308C0E0D0E00E94DF08C3
:103B70002097E1F30E940000F9CFCF92DF92EF92FD
:103B8000FF920F931F93CF93DF936C017A01EB01A8
:103B9000E60EF71E00E010E0CE15DF0561F069913A
:103BA000D601ED91FC910190F081E02DC6010995BF
:103BB000080F191FF1CFC801DF91CF911F910F910D
:103BC000FF90EF90DF90CF9008956115710581F01F
:103BD000DB010D900020E9F7AD0141505109461B72
:103BE000570BDC01ED91FC910280F381E02D0994EB
:103BF00080E090E00895EF92FF920F931F93CF9390
:103C0000DF938C01FB01C0E0D0E064917F018FEF76
:103C1000E81AF80A662361F0D801ED91FC91019051
:103C2000F081E02DC8010995C80FD91FF701EDCF2C
:103C3000CE01DF91CF911F910F91FF90EF900895EA
:103C4000DC01ED91FC91DB0114964D915C9115978F
:103C50006D917C910280F381E02D09940C94E51D17
:103C6000DC01ED91FC910190F081E02D09946AE571
:103C700072E00C94E51D0F931F93CF93DF93EC013B
:103C80000E94FB1D8C01CE010E94371E800F911FE8
:103C9000DF91CF911F910F9108958F929F92AF92D4
:103CA000BF92CF92DF92EF92FF920F931F93CF9329
:103CB000DF93CDB7DEB7A1970FB6F894DEBF0FBE86
:103CC000CDBF7C01C42EE52FCB01D22E19A221E05D
:103CD0002D1510F02AE0D22E8E010F5D1F4F8D2C76
:103CE000912CA12CB12C6C2D7E2FA50194010E944A
:103CF0005D248C2DD29E80191124015011098A3027
:103D000014F4805D01C0895CF801808321153105C0
:103D10004105510521F0C22EE32FCA01E4CFB801BD
:103D2000C7010E94E51DA1960FB6F894DEBF0FBE35
:103D3000CDBFDF91CF911F910F91FF90EF90DF905A
:103D4000CF90BF90AF909F908F900895CF92DF92C9
:103D5000EF92FF920F931F93CF93DF93EC016A01D1
:103D60007B012115310579F4E881F9810190F08119
:103D7000E02D642FDF91CF911F910F91FF90EF9075
:103D8000DF90CF9009942A303105E9F477FF1AC00B
:103D90006DE20E94301E8C0144275527BA014C1950
:103DA0005D096E097F092AE0CE010E944D1E800F39
:103DB000911FDF91CF911F910F91FF90EF90DF90B6
:103DC000CF9008952AE0B701A601CE01DF91CF91EF
:103DD0001F910F91FF90EF90DF90CF900C944D1EAC
:103DE0009A01AB01662757FD6095762F0C94A61EAD
:103DF0002115310541F4DC01ED91FC910190F08138
:103E0000E02D642F09940C944D1E9A01AB0160E0E3
:103E100070E00C94F81E4F925F926F927F928F9297
:103E20009F92AF92BF92CF92DF92EF92FF920F9349
:103E30001F93CF93DF93EC016A017B01B22E9A01AD
:103E4000AB01C701B6010E941524882319F06DE566
:103E500072E027C026013701E89477F82FEF3FEF93
:103E60004FE75FE7C301B2010E94152481110DC025
:103E70002FEF3FEF4FE75FE7C301B2010E945F22E0
:103E800018161CF461E672E00CC02FEF3FEF4FE70D
:103E90005FE4C701B6010E94AE231816ACF465E6D4
:103EA00072E0CE01DF91CF911F910F91FF90EF90C3
:103EB000DF90CF90BF90AF909F908F907F906F904A
:103EC0005F904F900C94E51D2FEF3FEF4FE75FECB5
:103ED000C701B6010E945F2287FDE1CF20E030E0FC
:103EE000A901C701B6010E945F2287FF0AC06DE2E7
:103EF000CE010E94301E8C01F7FAF094F7F8F0948E
:103F000002C000E010E0A12C60E070E080E09FE3E0
:103F1000AB1441F020E030E040E251E40E94632223
:103F2000A394F6CF9B01AC01C701B6010E94FB210F
:103F30006B017C010E94D0222B013C010E94FC22DB
:103F40009B01AC01C701B6010E94FA216B017C0103
:103F50002AE0B301A201CE010E944D1E080F191FD5
:103F6000BB2039F069E672E0CE010E94E51D080F22
:103F7000191F7B2C772041F120E030E040E251E432
:103F8000C701B6010E94B2236B017C010E94CB22C3
:103F90004B01AA2497FCA094BA2C2AE030E0B5018A
:103FA000A401CE010E94A61E080F191FC501B4016D
:103FB0000E94FE229B01AC01C701B6010E94FA21BA
:103FC0006B017C017A94D6CFC801DF91CF911F910C
:103FD0000F91FF90EF90DF90CF90BF90AF909F90A8
:103FE0008F907F906F905F904F9008950C940B1F6F
:103FF0004F925F926F927F92AF92BF92CF92DF9279
:10400000EF92FF920F931F93CF93DF93CDB7DEB75D
:1040100029013A01621B730B840B950B29893A899C
:104020004B895C892A193B094C095D09298B3A8B1C
:104030004B8B5C8B9B01AC0169897A898B899C894C
:104040000E941924E418F50806091709A801970128
:104050000E947F242A0D3B1D4C1D5D1DCA01B90124
:10406000DF91CF911F910F91FF90EF90DF90CF9054
:10407000BF90AF907F906F905F904F900895FC013C
:10408000808191810C947725CF93DF93EC01888117
:104090009981009711F00E947725198218821D825C
:1040A0001C821B821A82DF91CF9108950F931F9378
:1040B000CF93DF93EC018B016F5F7F4F88819981F4
:1040C0000E940626009731F0998388831B830A8318
:1040D00081E001C080E0DF91CF911F910F910895A1
:1040E000CF93DF93EC0188819981892B29F08A8114
:1040F0009B818617970760F4CE010E945620882383
:1041000041F08C819D81892B19F4E881F98110821D
:1041100081E0DF91CF910895EF92FF920F931F936B
:10412000CF93DF93EC017B018A01BA010E947020DA
:10413000811104C0CE010E94442007C01D830C835E
:10414000B701888199810E94E026CE01DF91CF914D
:104150001F910F91FF90EF900895FC011182108242
:1041600013821282158214826115710559F0FB01C8
:1041700001900020E9F7AF0141505109461B570B50
:104180000C948C200895CF93DF93EC01FB018617EC
:10419000970761F0608171816115710529F0448193
:1041A00055810E948C2002C00E944420CE01DF91E4
:1041B000CF910895FC011182108213821282158220
:1041C00014820C94C320CF93DF93EC016115710529
:1041D00061F0FB0101900020E9F7AF014150510966
:1041E000461B570B0E948C2002C00E944420CE0127
:1041F000DF91CF9108950F931F93CF93DF93CDB7A6
:10420000DEB762970FB6F894DEBF0FBECDBF8C014C
:10421000CB01F8011182108213821282158214825E
:1042200050E0BE016F5F7F4F0E94E726BE016F5FC7
:104230007F4FC8010E94E32062960FB6F894DEBF5C
:104240000FBECDBFDF91CF911F910F910895EF92D7
:10425000FF920F931F93CF93DF93CDB7DEB7A19754
:104260000FB6F894DEBF0FBECDBF7C01CB01BA0103
:10427000F70111821082138212821582148242E0A9
:10428000420F8E010F5F1F4F0E94BE24BC01C70169
:104290000E94E320A1960FB6F894DEBF0FBECDBFFB
:1042A000DF91CF911F910F91FF90EF900895EF92C2
:1042B000FF920F931F93CF93DF93CDB7DEB7A197F4
:1042C0000FB6F894DEBF0FBECDBF7C01CB01BA01A3
:1042D000F70111821082138212821582148242E049
:1042E000420F8E010F5F1F4F0E94BE24BC01C70109
:1042F0000E94E320A1960FB6F894DEBF0FBECDBF9B
:10430000DF91CF911F910F91FF90EF900895EF9261
:10431000FF920F931F93CF93DF93EC017B010C81EE
:104320001D816115710511F480E016C0411551051C
:1043300091F0040F151FB8010E9470208823A1F38B
:10434000288139818C819D81B701820F931F0E9442
:10435000E0261D830C8381E0DF91CF911F910F91A7
:10436000FF90EF900895FB01448155816081718138
:104370000C948721CF93DF93EC01FB01448155819D
:10438000608171810E948721811103C0CE010E944A
:104390004420CE01DF91CF910895CF93DF93EC01BC
:1043A0006115710569F0FB0101900020E9F7AF018B
:1043B00041505109461B570B0E948721811103C0B0
:1043C000CE010E944420CE01DF91CF910895FC01DF
:1043D000848195816817790720F480819181009705
:1043E00029F410927B068BE796E00895860F971FBD
:1043F000089508955058BB27AA270ED075C166D1DD
:1044000030F06BD120F031F49F3F11F41EF45BC10A
:104410000EF4E095E7FB51C1E92F77D180F3BA178D
:10442000620773078407950718F071F49EF58FC132
:104430000EF4E0950B2EBA2FA02D0B01B9019001BF
:104440000C01CA01A0011124FF27591B99F0593F03
:1044500050F4503E68F11A16F040A22F232F342F4B
:104460004427585FF3CF469537952795A795F04099
:104470005395C9F77EF41F16BA0B620B730B840BAE
:10448000BAF09150A1F0FF0FBB1F661F771F881F66
:10449000C2F70EC0BA0F621F731F841F48F48795BE
:1044A00077956795B795F7959E3F08F0B3CF9395AD
:1044B000880F08F09927EE0F979587950895D9D022
:1044C00008F481E008950CD00FC107D140F0FED070
:1044D00030F021F45F3F19F0F0C0511139C1F3C041
:1044E00014D198F39923C9F35523B1F3951B550BB8
:1044F000BB27AA2762177307840738F09F5F5F4FB7
:10450000220F331F441FAA1FA9F333D00E2E3AF0F7
:10451000E0E830D091505040E695001CCAF729D011
:10452000FE2F27D0660F771F881FBB1F2617370760
:104530004807AB07B0E809F0BB0B802DBF01FF2790
:1045400093585F4F2AF09E3F510568F0B6C000C1F6
:104550005F3FECF3983EDCF3869577956795B795CA
:10456000F7959F5FC9F7880F911D9695879597F9E5
:104570000895E1E0660F771F881FBB1F621773075E
:104580008407BA0720F0621B730B840BBA0BEE1F73
:1045900088F7E095089504D06894B111D9C00895C2
:1045A000BCD088F09F5790F0B92F9927B751A0F051
:1045B000D1F0660F771F881F991F1AF0BA95C9F7B7
:1045C00012C0B13081F0C3D0B1E00895C0C0672FF0
:1045D000782F8827B85F39F0B93FCCF38695779567
:1045E0006795B395D9F73EF4909580957095619550
:1045F0007F4F8F4F9F4F0895E89409C097FB3EF47B
:1046000090958095709561957F4F8F4F9F4F99231F
:10461000A9F0F92F96E9BB279395F695879577959D
:104620006795B795F111F8CFFAF4BB0F11F460FF5D
:104630001BC06F5F7F4F8F4F9F4F16C0882311F0B5
:1046400096E911C0772321F09EE8872F762F05C0C9
:10465000662371F096E8862F70E060E02AF09A9564
:10466000660F771F881FDAF7880F9695879597F959
:104670000895990F0008550FAA0BE0E8FEEF1616F3
:104680001706E807F907C0F012161306E407F50746
:1046900098F0621B730B840B950B39F40A2661F0BA
:1046A000232B242B252B21F408950A2609F4A1405D
:1046B000A6958FEF811D811D089597F99F6780E86A
:1046C00070E060E008959FEF80EC089500240A9464
:1046D0001616170618060906089500240A941216DD
:1046E0001306140605060895092E0394000C11F410
:1046F000882352F0BB0F40F4BF2B11F460FF04C0BD
:104700006F5F7F4F8F4F9F4F089557FD9058440F15
:10471000551F59F05F3F71F04795880F97FB991F20
:1047200061F09F3F79F087950895121613061406DD
:10473000551FF2CF4695F1DF08C01616170618066A
:10474000991FF1CF86957105610508940895E89445
:10475000BB2766277727CB0197F908958ADF08F4EE
:104760008FEF08950BD0C0CFB1DF28F0B6DF18F07F
:10477000952309F0A2CFA7CF1124EACFC6DFA0F37B
:10478000959FD1F3950F50E0551F629FF001729FE6
:10479000BB27F00DB11D639FAA27F00DB11DAA1F05
:1047A000649F6627B00DA11D661F829F2227B00D52
:1047B000A11D621F739FB00DA11D621F839FA00DDD
:1047C000611D221F749F3327A00D611D231F849F2D
:1047D000600D211D822F762F6A2F11249F57504084
:1047E0008AF0E1F088234AF0EE0FFF1FBB1F661F1F
:1047F000771F881F91505040A9F79E3F510570F0D8
:104800005CCFA6CF5F3FECF3983EDCF386957795BF
:104810006795B795F795E7959F5FC1F7FE2B880FD2
:10482000911D9695879597F9089523DF880B990B2D
:104830000895DB018F939F930E949E24BF91AF91B7
:10484000A29F800D911DA39F900DB29F900D1124EA
:104850000895991B79E004C0991F961708F0961BDC
:10486000881F7A95C9F780950895AA1BBB1B51E153
:1048700007C0AA1FBB1FA617B70710F0A61BB70BD0
:10488000881F991F5A95A9F780959095BC01CD0175
:10489000089597FB072E16F4009407D077FD09D0F2
:1048A0000E94352407FC05D03EF4909581959F4FDA
:1048B0000895709561957F4F0895A1E21A2EAA1B65
:1048C000BB1BFD010DC0AA1FBB1FEE1FFF1FA217C0
:1048D000B307E407F50720F0A21BB30BE40BF50BBD
:1048E000661F771F881F991F1A9469F76095709546
:1048F000809590959B01AC01BD01CF010895052ED7
:1049000097FB1EF400940E94962457FD07D00E9446
:104910005D2407FC03D04EF40C94962450954095EA
:10492000309521953F4F4F4F5F4F0895909580955B
:10493000709561957F4F8F4F9F4F08950E94AF24D0
:10494000A59F900DB49F900DA49F800D911D1124E3
:104950000895EE0FFF1F0590F491E02D0994A29F9A
:10496000B001B39FC001A39F700D811D1124911D43
:10497000B29F700D811D1124911D0895EF920F9328
:104980001F93CF93DF93E80147FF02C034E101C0DA
:1049900034E0E42FFF27E7FDF095F7FF03C0F19522
:1049A000E195F109E32E022F2E2FAE010E94172769
:1049B000CE01DF91CF911F910F91EF900895CF938A
:1049C000DF938230910510F482E090E0E0917E0662
:1049D000F0917F0620E030E0A0E0B0E0309739F1C0
:1049E0004081518148175907B8F04817590771F4A9
:1049F00082819381109729F013969C938E9312973E
:104A00002CC090937F0680937E0627C02115310528
:104A100031F04217530718F0A901DB0101C0EF0183
:104A20009A01BD01DF010280F381E02DD7CF21156E
:104A30003105F9F0281B390B2430310580F48A81C7
:104A40009B816115710521F0FB019383828304C072
:104A500090937F0680937E06FE01329644C0FE014D
:104A6000E20FF31F819391932250310939832883F8
:104A70003AC020917C0630917D06232B41F4209191
:104A800002013091030130937D0620937C06209132
:104A90000001309101012115310541F42DB73EB7D8
:104AA0004091040150910501241B350BE0917C06D7
:104AB000F0917D06E217F307A0F42E1B3F0B281799
:104AC000390778F0AC014E5F5F4F2417350748F087
:104AD0004E0F5F1F50937D0640937C068193919308
:104AE00002C0E0E0F0E0CF01DF91CF910895CF93D5
:104AF000DF93009709F487C0FC013297138212827A
:104B0000C0917E06D0917F06209781F4208131816B
:104B1000280F391F80917C0690917D06821793079C
:104B200079F5F0937D06E0937C066DC0DE0120E010
:104B300030E0AE17BF0750F412964D915C91139779
:104B40009D014115510509F1DA01F3CFB383A28329
:104B500040815181840F951F8A179B0771F48D91B5
:104B60009C911197840F951F0296918380831296D2
:104B70008D919C911397938382832115310529F49C
:104B8000F0937F06E0937E063EC0D9011396FC9316
:104B9000EE9312974D915D91A40FB51FEA17FB0795
:104BA00079F480819181840F951F0296D901119625
:104BB0009C938E938281938113969C938E931297EC
:104BC000E0E0F0E08A819B81009719F0FE01EC01A2
:104BD000F9CFCE01029628813981820F931F20914F
:104BE0007C0630917D062817390769F4309729F43F
:104BF00010927F0610927E0602C013821282D0931A
:104C00007D06C0937C06DF91CF910895A0E0B0E0CF
:104C1000ECE0F6E20C948129EC01CB01209719F429
:104C20000E94DF24B8C0FE01E60FF71F9E0122504C
:104C30003109E217F30708F4ACC0D9010D911C91BA
:104C4000119706171707B8F00530110508F49FC033
:104C5000A801445051094617570708F498C002505C
:104C60001109061B170B019311936D937C93CF01D0
:104C70000E9477258CC05B01A01AB10A4E01800EFC
:104C8000911EA0917E06B0917F06612C712C60E090
:104C900070E0109709F449C0A815B905C9F5ED9061
:104CA000FC901197670142E0C40ED11CCA14DB04CA
:104CB00078F147018A189B08640142E0C40ED11CB8
:104CC0001296BC9012971396AC91B5E0CB16D10416
:104CD00040F0B282A38391828082D9018D939C930C
:104CE00009C00E5F1F4F0E0D1F1DF90111830083B8
:104CF000EB2DFA2F6115710531F0DB011396FC9352
:104D0000EE93129744C0F0937F06E0937E063FC077
:104D10006D917C9111976616770608F43B01BD01F1
:104D200012960D90BC91A02DB4CF60917C0670912D
:104D30007D0668157905E9F468167906D0F4409186
:104D40000001509101014115510541F44DB75EB785
:104D50006091040170910501461B570BE417F5079C
:104D6000C0F4F0937D06E0937C06F9019183808383
:104D70000EC00E94DF247C01009759F0A801BE01FB
:104D80000E94D726CE010E947725C70104C0CE011C
:104D900002C080E090E0CDB7DEB7EEE00C949D2934
:104DA000FB01DC0105900D920020E1F70895FB0165
:104DB000DC0102C001900D9241505040D8F7089597
:104DC000FB01DC0101900D920020E1F708954532CE
:104DD000510520F4423010F00C94F226FB011082B1
:104DE000CB010895BB274A3031F4992322F4BDE268
:104DF000909581959F4F0C94FE26BB27FB0155276C
:104E0000AA27880F991FAA1FA41710F0A41B839527
:104E10005051B9F7A05DAA3308F0A95DA19300979E
:104E200079F7B111B1931192CB010C946D296F9266
:104E30007F929F92AF92BF92CF92DF92EF92FF92BA
:104E40000F931F93CF93DF93CDB7DEB729970FB69C
:104E5000F894DEBF0FBECDBF6A01B22E102F0C3307
:104E600020F4FF24F394F00E02C04CE3F42E0F2D37
:104E700027E0AE014F5F5F4F0E9495287981272F71
:104E80002970213031F0E1FC06C0E0FC06C060E092
:104E900005C06DE203C06BE201C060E2AE2DA071FF
:104EA00073FF36C0662311F084E001C083E08B15E8
:104EB00010F4B81A01C0B12CA1110BC0F6018B2D52
:104EC00090E2882319F091938150FBCFCB0CD11C39
:104ED000B12C662331F0F601608396012F5F3F4FBE
:104EE0006901C6010396E2FE05C02EE4F6012083A7
:104EF00031E404C02EE6F601208331E631832283BB
:104F0000FC012B2D30E22223F1F131932150FBCF14
:104F100072FF40C0662311F084E001C083E08B156E
:104F200010F4B81A01C0B12CA1110BC0F6018B2DE1
:104F300090E2882319F091938150FBCFCB0CD11CC8
:104F4000B12C662331F0F601608396012F5F3F4F4D
:104F50006901C6010396E2FE07C029E4F601208339
:104F60002EE4218326E406C029E6F60120832EE6FE
:104F7000218326E62283FC012B2D30E2222319F027
:104F800031932150FBCFFC01EB0DF11D10828EEF10
:104F90009FEFB7C0B1E0611101C0B0E04B2F50E00E
:104FA0001816190624F49C012F5F3F4F02C021E020
:104FB00030E0240F351F112329F0412F50E04F5FBF
:104FC0005F4F02C040E050E0420F531F2B2D30E0F6
:104FD0004217530714F4B41A01C0B12C2E2D2871B6
:104FE00059F4F6012B2D30E2222319F03193215090
:104FF000FBCFCB0CD11CB12CBB2331F0F60160836D
:1050000096012F5F3F4F6901A1110BC0F6012B2DB7
:1050100030E3222319F031932150FBCFCB0CD11C6C
:10502000B12CF80E0A81372F3071A32E74FF03C004
:10503000013309F4FA941F142CF42F2D293018F0A1
:1050400028E001C021E0682F392F97FF02C060E0FF
:1050500030E0462F532F612C712C3EE2932EBC0181
:10506000621B71099B01DC01A41BB50BE1E0F0E0C0
:10507000EC0FFD1FAE0FBF1FE12EF12CF194E19458
:10508000F1084F3FFFEF5F0731F4F6019082B60160
:105090006F5F7F4F6B01841795074CF0241735071E
:1050A00034F4BD01660D771DFB01118101C010E3D1
:1050B00041505109FFEF6F1A7F0AB6016F5F7F4FB2
:1050C0004E155F0524F0F60110836B01DACF481707
:1050D000590739F4063320F4053319F4A11001C03F
:1050E00011E3F6011083FB018B2D90E2882319F068
:1050F00091938150FBCFFB01EB0DF11D108280E0FD
:1051000090E029960FB6F894DEBF0FBECDBFDF91B9
:10511000CF911F910F91FF90EF90DF90CF90BF90B4
:10512000AF909F907F906F900895283008F027E00F
:105130003327DA01990F311D87FD916000966105D3
:10514000710539F432602E5F3D9330E32A95E1F723
:1051500008959F3F30F080387105610509F03C5F8C
:105160003C5F3D93913008F08068911DDF93CF93B1
:105170001F930F93FF92EF92192F987F9695E92F27
:1051800096959695E90FFF27E250F84F9927332718
:10519000EE24FF24A701E70105900894079428F462
:1051A000360FE71EF81E491F511D660F771F881F17
:1051B000991F0694A1F70590079428F4E70EF81EAE
:1051C000491F561FC11D770F881F991F661F069420
:1051D000A1F70590079428F4F80E491F561FC71F22
:1051E000D11D880F991F661F771F0694A1F70590A0
:1051F000079420F4490F561FC71FD81F990F661F29
:10520000771F881F0694A9F784911095177041F0B5
:10521000D695C79557954795F794E7941A95C1F792
:10522000E4EAF7E0689415901591359165919591B0
:1052300005907FE27395E118F10A430B560BC90BF9
:10524000D009C0F7E10CF11E431F561FC91FD01D26
:105250007EF4703311F48A95E6CFE894015030F073
:10526000080F0AF40027021708F4202F2395022FB5
:105270007A3328F079E37D932A95E9F710C07D937E
:105280002A9589F6069497956795379517951794FB
:10529000E118F10A430B560BC90BD00998F023957E
:1052A0007E9173957A3308F070E37C932013B8F7FE
:1052B0007E9170617D9330F0839571E37D9370E30F
:1052C0002A95E1F71124EF90FF900F911F91CF9154
:1052D000DF91992787FD90950895DC01FC01672FE8
:1052E00071917723E1F7329704C07C916D937083BD
:1052F0006291AE17BF07C8F308952F923F924F9265
:105300005F926F927F928F929F92AF92BF92CF9255
:10531000DF92EF92FF920F931F93CF93DF93CDB75E
:10532000DEB7CA1BDB0B0FB6F894DEBF0FBECDBFD6
:1053300009942A88398848885F846E847D848C84A7
:105340009B84AA84B984C884DF80EE80FD800C81B0
:105350001B81AA81B981CE0FD11D0FB6F894DEBF93
:105360000FBECDBFED01089518E0C2EAD8E004C039
:10537000FE010E94AB242296C43AD107C9F7F894E3
:02538000FFCF5D
:10538200000080068000010000005807000009D0DC
:1053920000000002DF84004000000000000007005F
:1053A20000B2420000D8420000B6420000D84200DB
:1053B2000098428F02AE428F0298428F0298428F2B
:1053C20002824220A801A2019C01960190018A0159
:1053D20084017E017801D801D801D201D201CC0129
:1053E200CC01C601C601C001C001BA01BA01B401B3
:1053F200B401AE01AE0101013132333435363738F2
:10540200393031323334353637383930313233345A
:10541200353637383930313233343536373839303A
:105422003132333435363738393031323334353638
:105432003738393031323334006E6F206461746131
:1054420020617661696C61626C6500756E6B6E6F6E
:10545200776E0068683A6D6D0030002020202020B1
:10546200202020202020202020202020202020203A
:10547200202020202020202020202020202020202A
:10548200202020202020202020202020202020201A
:1054920020202020202020202020003A002D2D3AFC
:1054A2002D2D004D487A0000000003CDCCCC3DCD1F
:1054B200CC4C3ECDCC4C3DCDCCCC3C000000006170
:1054C20011BD1D4C4F414445520000000000081917
:1054D200DB18B018B818CB18DA180D0A006E616E16
:0C54E20000696E66006F7666002E000008
:00000001FF
